{
  "contractName": "LockLiquidityYTXETH",
  "abi": [
    {
      "anonymous": false,
      "inputs": [
        {
          "indexed": true,
          "internalType": "address",
          "name": "previousOwner",
          "type": "address"
        },
        {
          "indexed": true,
          "internalType": "address",
          "name": "newOwner",
          "type": "address"
        }
      ],
      "name": "OwnershipTransferred",
      "type": "event"
    },
    {
      "inputs": [
        {
          "internalType": "address",
          "name": "",
          "type": "address"
        }
      ],
      "name": "initialLockedLiquidity",
      "outputs": [
        {
          "internalType": "uint256",
          "name": "",
          "type": "uint256"
        }
      ],
      "stateMutability": "view",
      "type": "function"
    },
    {
      "inputs": [
        {
          "internalType": "address",
          "name": "",
          "type": "address"
        }
      ],
      "name": "lastPriceEarningsExtracted",
      "outputs": [
        {
          "internalType": "uint256",
          "name": "",
          "type": "uint256"
        }
      ],
      "stateMutability": "view",
      "type": "function"
    },
    {
      "inputs": [],
      "name": "owner",
      "outputs": [
        {
          "internalType": "address",
          "name": "",
          "type": "address"
        }
      ],
      "stateMutability": "view",
      "type": "function"
    },
    {
      "inputs": [],
      "name": "renounceOwnership",
      "outputs": [],
      "stateMutability": "nonpayable",
      "type": "function"
    },
    {
      "inputs": [],
      "name": "totalLiquidityLocked",
      "outputs": [
        {
          "internalType": "uint256",
          "name": "",
          "type": "uint256"
        }
      ],
      "stateMutability": "view",
      "type": "function"
    },
    {
      "inputs": [],
      "name": "totalYtxFeeMined",
      "outputs": [
        {
          "internalType": "uint256",
          "name": "",
          "type": "uint256"
        }
      ],
      "stateMutability": "view",
      "type": "function"
    },
    {
      "inputs": [
        {
          "internalType": "address",
          "name": "newOwner",
          "type": "address"
        }
      ],
      "name": "transferOwnership",
      "outputs": [],
      "stateMutability": "nonpayable",
      "type": "function"
    },
    {
      "inputs": [],
      "name": "uniswapLPContract",
      "outputs": [
        {
          "internalType": "address",
          "name": "",
          "type": "address"
        }
      ],
      "stateMutability": "view",
      "type": "function"
    },
    {
      "inputs": [],
      "name": "ytx",
      "outputs": [
        {
          "internalType": "address",
          "name": "",
          "type": "address"
        }
      ],
      "stateMutability": "view",
      "type": "function"
    },
    {
      "inputs": [
        {
          "internalType": "address",
          "name": "",
          "type": "address"
        }
      ],
      "name": "ytxFee",
      "outputs": [
        {
          "internalType": "uint256",
          "name": "",
          "type": "uint256"
        }
      ],
      "stateMutability": "view",
      "type": "function"
    },
    {
      "inputs": [],
      "name": "ytxFeePrice",
      "outputs": [
        {
          "internalType": "uint256",
          "name": "",
          "type": "uint256"
        }
      ],
      "stateMutability": "view",
      "type": "function"
    },
    {
      "inputs": [
        {
          "internalType": "address",
          "name": "_uniswapLPContract",
          "type": "address"
        },
        {
          "internalType": "address",
          "name": "_ytx",
          "type": "address"
        }
      ],
      "name": "initialize",
      "outputs": [],
      "stateMutability": "nonpayable",
      "type": "function"
    },
    {
      "inputs": [
        {
          "internalType": "address",
          "name": "_ytx",
          "type": "address"
        }
      ],
      "name": "setYtx",
      "outputs": [],
      "stateMutability": "nonpayable",
      "type": "function"
    },
    {
      "inputs": [
        {
          "internalType": "address",
          "name": "_uniswapLPContract",
          "type": "address"
        }
      ],
      "name": "setUniswapLPContract",
      "outputs": [],
      "stateMutability": "nonpayable",
      "type": "function"
    },
    {
      "inputs": [
        {
          "internalType": "uint256",
          "name": "_amount",
          "type": "uint256"
        }
      ],
      "name": "lockLiquidity",
      "outputs": [],
      "stateMutability": "nonpayable",
      "type": "function"
    },
    {
      "inputs": [],
      "name": "extractEarnings",
      "outputs": [],
      "stateMutability": "nonpayable",
      "type": "function"
    },
    {
      "inputs": [
        {
          "internalType": "address",
          "name": "_token",
          "type": "address"
        },
        {
          "internalType": "uint256",
          "name": "_amount",
          "type": "uint256"
        }
      ],
      "name": "extractTokensIfStuck",
      "outputs": [],
      "stateMutability": "nonpayable",
      "type": "function"
    },
    {
      "inputs": [],
      "name": "extractETHIfStruck",
      "outputs": [],
      "stateMutability": "nonpayable",
      "type": "function"
    },
    {
      "inputs": [
        {
          "internalType": "address",
          "name": "_user",
          "type": "address"
        }
      ],
      "name": "getUserLockedLiquidity",
      "outputs": [
        {
          "internalType": "uint256",
          "name": "",
          "type": "uint256"
        }
      ],
      "stateMutability": "view",
      "type": "function"
    },
    {
      "inputs": [
        {
          "internalType": "address",
          "name": "_user",
          "type": "address"
        }
      ],
      "name": "getYtxFee",
      "outputs": [
        {
          "internalType": "uint256",
          "name": "",
          "type": "uint256"
        }
      ],
      "stateMutability": "view",
      "type": "function"
    }
  ],
  "bytecode": "0x608060405234801561001057600080fd5b5061137a806100206000396000f3fe608060405234801561001057600080fd5b506004361061016c5760003560e01c80639bfaadf8116100cd578063d42eefbe11610081578063e01f62bf11610066578063e01f62bf146103dc578063f2fde38b146103e4578063f8b02d31146104175761016c565b8063d42eefbe146103a1578063d7025387146103a95761016c565b8063c6314862116100b2578063c631486214610333578063c6a67b5414610366578063d0af45f21461036e5761016c565b80639bfaadf8146102c7578063a9a1015a146102fa5761016c565b80633dadba3a11610124578063485cc95511610109578063485cc95514610253578063715018a61461028e5780638da5cb5b146102965761016c565b80633dadba3a146101ed5780633df28775146102205761016c565b80632d0a2500116101555780632d0a25001461019857806334fe760d146101b25780633b1796e3146101e55761016c565b806309338b52146101715780632bfbd9cf1461017b575b600080fd5b61017961041f565b005b6101796004803603602081101561019157600080fd5b5035610500565b6101a0610755565b60408051918252519081900360200190f35b610179600480360360208110156101c857600080fd5b503573ffffffffffffffffffffffffffffffffffffffff1661075b565b610179610833565b6101796004803603602081101561020357600080fd5b503573ffffffffffffffffffffffffffffffffffffffff16610993565b6101a06004803603602081101561023657600080fd5b503573ffffffffffffffffffffffffffffffffffffffff16610a6b565b6101796004803603604081101561026957600080fd5b5073ffffffffffffffffffffffffffffffffffffffff81358116916020013516610a7d565b610179610be8565b61029e610ce8565b6040805173ffffffffffffffffffffffffffffffffffffffff9092168252519081900360200190f35b6101a0600480360360208110156102dd57600080fd5b503573ffffffffffffffffffffffffffffffffffffffff16610d04565b6101796004803603604081101561031057600080fd5b5073ffffffffffffffffffffffffffffffffffffffff8135169060200135610d2c565b6101a06004803603602081101561034957600080fd5b503573ffffffffffffffffffffffffffffffffffffffff16610e4b565b61029e610e73565b6101a06004803603602081101561038457600080fd5b503573ffffffffffffffffffffffffffffffffffffffff16610e8f565b6101a0610ea1565b6101a0600480360360208110156103bf57600080fd5b503573ffffffffffffffffffffffffffffffffffffffff16610ea7565b6101a0610eb9565b610179600480360360208110156103fa57600080fd5b503573ffffffffffffffffffffffffffffffffffffffff16610ebf565b61029e61104a565b610427611066565b60655473ffffffffffffffffffffffffffffffffffffffff9081169116146104b057604080517f08c379a000000000000000000000000000000000000000000000000000000000815260206004820181905260248201527f4f776e61626c653a2063616c6c6572206973206e6f7420746865206f776e6572604482015290519081900360640190fd5b6104b8610ce8565b73ffffffffffffffffffffffffffffffffffffffff166108fc479081150290604051600060405180830381858888f193505050501580156104fd573d6000803e3d6000fd5b50565b609a54604080517fdd62ed3e000000000000000000000000000000000000000000000000000000008152336004820152306024820152905160009273ffffffffffffffffffffffffffffffffffffffff169163dd62ed3e916044808301926020929190829003018186803b15801561057757600080fd5b505afa15801561058b573d6000803e3d6000fd5b505050506040513d60208110156105a157600080fd5b50519050818110156105fe576040517f08c379a000000000000000000000000000000000000000000000000000000000815260040180806020018281038252604e815260200180611285604e913960600191505060405180910390fd5b609a54604080517f23b872dd00000000000000000000000000000000000000000000000000000000815233600482015230602482015260448101859052905173ffffffffffffffffffffffffffffffffffffffff909216916323b872dd916064808201926020929091908290030181600087803b15801561067e57600080fd5b505af1158015610692573d6000803e3d6000fd5b505050506040513d60208110156106a857600080fd5b5050336000908152609760205260409020546106ca908363ffffffff61106a16565b33600090815260976020526040902055609c546106ed908363ffffffff61106a16565b609c55609e5460009061070790849063ffffffff6110e716565b609d5490915061071d908263ffffffff61106a16565b609d5533600090815260986020526040902054610740908263ffffffff61106a16565b33600090815260986020526040902055505050565b609e5481565b610763611066565b60655473ffffffffffffffffffffffffffffffffffffffff9081169116146107ec57604080517f08c379a000000000000000000000000000000000000000000000000000000000815260206004820181905260248201527f4f776e61626c653a2063616c6c6572206973206e6f7420746865206f776e6572604482015290519081900360640190fd5b609b80547fffffffffffffffffffffffff00000000000000000000000000000000000000001673ffffffffffffffffffffffffffffffffffffffff92909216919091179055565b609e5433600090815260996020526040902054141561089d576040517f08c379a00000000000000000000000000000000000000000000000000000000081526004018080602001828103825260238152602001806113226023913960400191505060405180910390fd5b33600090815260996020908152604080832054609e54609890935290832054910391906108d0908363ffffffff61112916565b609e5433600081815260996020908152604080832094909455609b5484517fa9059cbb000000000000000000000000000000000000000000000000000000008152600481019490945260248401869052935194955073ffffffffffffffffffffffffffffffffffffffff9093169363a9059cbb936044808501949193918390030190829087803b15801561096357600080fd5b505af1158015610977573d6000803e3d6000fd5b505050506040513d602081101561098d57600080fd5b50505050565b61099b611066565b60655473ffffffffffffffffffffffffffffffffffffffff908116911614610a2457604080517f08c379a000000000000000000000000000000000000000000000000000000000815260206004820181905260248201527f4f776e61626c653a2063616c6c6572206973206e6f7420746865206f776e6572604482015290519081900360640190fd5b609a80547fffffffffffffffffffffffff00000000000000000000000000000000000000001673ffffffffffffffffffffffffffffffffffffffff92909216919091179055565b60996020526000908152604090205481565b600054610100900460ff1680610a965750610a9661119c565b80610aa4575060005460ff16155b610af9576040517f08c379a000000000000000000000000000000000000000000000000000000000815260040180806020018281038252602e8152602001806112f4602e913960400191505060405180910390fd5b600054610100900460ff16158015610b5f57600080547fffffffffffffffffffffffffffffffffffffffffffffffffffffffffffffff007fffffffffffffffffffffffffffffffffffffffffffffffffffffffffffff00ff909116610100171660011790555b609a805473ffffffffffffffffffffffffffffffffffffffff8086167fffffffffffffffffffffffff000000000000000000000000000000000000000092831617909255609b8054928516929091169190911790558015610be357600080547fffffffffffffffffffffffffffffffffffffffffffffffffffffffffffff00ff1690555b505050565b610bf0611066565b60655473ffffffffffffffffffffffffffffffffffffffff908116911614610c7957604080517f08c379a000000000000000000000000000000000000000000000000000000000815260206004820181905260248201527f4f776e61626c653a2063616c6c6572206973206e6f7420746865206f776e6572604482015290519081900360640190fd5b60655460405160009173ffffffffffffffffffffffffffffffffffffffff16907f8be0079c531659141344cd1fd0a4f28419497f9722a3daafe3b4186f6b6457e0908390a3606580547fffffffffffffffffffffffff0000000000000000000000000000000000000000169055565b60655473ffffffffffffffffffffffffffffffffffffffff1690565b73ffffffffffffffffffffffffffffffffffffffff1660009081526098602052604090205490565b610d34611066565b60655473ffffffffffffffffffffffffffffffffffffffff908116911614610dbd57604080517f08c379a000000000000000000000000000000000000000000000000000000000815260206004820181905260248201527f4f776e61626c653a2063616c6c6572206973206e6f7420746865206f776e6572604482015290519081900360640190fd5b8173ffffffffffffffffffffffffffffffffffffffff1663a9059cbb610de1610ce8565b836040518363ffffffff1660e01b8152600401808373ffffffffffffffffffffffffffffffffffffffff1673ffffffffffffffffffffffffffffffffffffffff16815260200182815260200192505050602060405180830381600087803b15801561096357600080fd5b73ffffffffffffffffffffffffffffffffffffffff1660009081526097602052604090205490565b609b5473ffffffffffffffffffffffffffffffffffffffff1681565b60976020526000908152604090205481565b609d5481565b60986020526000908152604090205481565b609c5481565b610ec7611066565b60655473ffffffffffffffffffffffffffffffffffffffff908116911614610f5057604080517f08c379a000000000000000000000000000000000000000000000000000000000815260206004820181905260248201527f4f776e61626c653a2063616c6c6572206973206e6f7420746865206f776e6572604482015290519081900360640190fd5b73ffffffffffffffffffffffffffffffffffffffff8116610fbc576040517f08c379a000000000000000000000000000000000000000000000000000000000815260040180806020018281038252602681526020018061125f6026913960400191505060405180910390fd5b60655460405173ffffffffffffffffffffffffffffffffffffffff8084169216907f8be0079c531659141344cd1fd0a4f28419497f9722a3daafe3b4186f6b6457e090600090a3606580547fffffffffffffffffffffffff00000000000000000000000000000000000000001673ffffffffffffffffffffffffffffffffffffffff92909216919091179055565b609a5473ffffffffffffffffffffffffffffffffffffffff1681565b3390565b6000828201838110156110de57604080517f08c379a000000000000000000000000000000000000000000000000000000000815260206004820152601b60248201527f536166654d6174683a206164646974696f6e206f766572666c6f770000000000604482015290519081900360640190fd5b90505b92915050565b60006110de83836040518060400160405280601a81526020017f536166654d6174683a206469766973696f6e206279207a65726f0000000000008152506111a2565b600082611138575060006110e1565b8282028284828161114557fe5b04146110de576040517f08c379a00000000000000000000000000000000000000000000000000000000081526004018080602001828103825260218152602001806112d36021913960400191505060405180910390fd5b303b1590565b60008183611248576040517f08c379a00000000000000000000000000000000000000000000000000000000081526004018080602001828103825283818151815260200191508051906020019080838360005b8381101561120d5781810151838201526020016111f5565b50505050905090810190601f16801561123a5780820380516001836020036101000a031916815260200191505b509250505060405180910390fd5b50600083858161125457fe5b049594505050505056fe4f776e61626c653a206e6577206f776e657220697320746865207a65726f2061646472657373596f75206d75737420617070726f766520746865206465736972656420616d6f756e74206f66206c697175696469747920746f6b656e7320746f207468697320636f6e7472616374206669727374536166654d6174683a206d756c7469706c69636174696f6e206f766572666c6f77436f6e747261637420696e7374616e63652068617320616c7265616479206265656e20696e697469616c697a6564596f7520616c72656164792065787472616374656420796f7572206561726e696e6773a2646970667358221220efb4a0ace7c56e0f07c2fcdf5708e12b9a475f5e8d6f5928b30a75edf293114064736f6c63430006020033",
  "source": "// The contract to lock the YTX liquidity and earn fees\npragma solidity =0.6.2;\n\nimport '@openzeppelin/contracts-ethereum-package/contracts/access/Ownable.sol';\nimport '@openzeppelin/contracts-ethereum-package/contracts/token/ERC20/IERC20.sol';\nimport '@openzeppelin/contracts-ethereum-package/contracts/Initializable.sol';\nimport '@openzeppelin/contracts-ethereum-package/contracts/math/SafeMath.sol';\n\ninterface ILockLiquidityYTXETH {\n    function totalLiquidityLocked(address _user) external view;\n    function getUserLockedLiquidity(address _user) external view;\n}\n\n/// @notice This contract allows you to lock liquidity LP tokens and receive earnings\n/// It also allows you to extract those earnings. It's the treasury where the fee YTX is stored\ncontract LockLiquidityYTXETH is Initializable, OwnableUpgradeSafe {\n    using SafeMath for uint256;\n\n    mapping (address => uint256) public initialLockedLiquidity;\n    mapping (address => uint256) public ytxFee;\n    // The price when you extracted your earnings so we can whether you got new earnings or not\n    mapping (address => uint256) public lastPriceEarningsExtracted;\n    // The uniswap LP token contract\n    address public uniswapLPContract;\n    // The YTX token\n    address public ytx;\n    // How many LP tokens are locked\n    uint256 public totalLiquidityLocked;\n    // The total YTXFee generated\n    uint256 public totalYtxFeeMined;\n    uint256 public ytxFeePrice;\n    \n    function initialize(address _uniswapLPContract, address _ytx) public initializer {\n        uniswapLPContract = _uniswapLPContract;\n        ytx = _ytx;\n    }\n\n    function setYtx(address _ytx) public onlyOwner {\n        ytx = _ytx;\n    }\n\n    function setUniswapLPContract(address _uniswapLPContract) public onlyOwner {\n        uniswapLPContract = _uniswapLPContract;\n    }\n\n    function lockLiquidity(uint256 _amount) public {\n        // Transfer UNI-LP-V2 tokens inside here forever while earning fees from every transfer, LP tokens can't be extracted\n        uint256 approval = IERC20(uniswapLPContract).allowance(msg.sender, address(this));\n        require(approval >= _amount, 'You must approve the desired amount of liquidity tokens to this contract first');\n        IERC20(uniswapLPContract).transferFrom(msg.sender, address(this), _amount);\n        initialLockedLiquidity[msg.sender] = initialLockedLiquidity[msg.sender].add(_amount);\n        totalLiquidityLocked = totalLiquidityLocked.add(_amount);\n        uint256 myYtxFee = _amount.div(ytxFeePrice);\n        totalYtxFeeMined = totalYtxFeeMined.add(myYtxFee);\n        // The price doesn't change when locking liquidity. It changes when fees are generated from transfers\n        // TODO: update price on fee generation (when transfering from the YTX contract)\n        ytxFee[msg.sender] = ytxFee[msg.sender].add(myYtxFee);\n    }\n\n    // We check for new earnings by seeing if the price the user last extracted his earnings\n    // is the same or not to determine whether he can extract new earnings or not\n    function extractEarnings() public {\n        require(lastPriceEarningsExtracted[msg.sender] != ytxFeePrice, 'You already extracted your earnings');\n        // The ytxFee price minus the last price extracted\n        uint256 myPrice = ytxFeePrice - lastPriceEarningsExtracted[msg.sender];\n        uint256 earnings = ytxFee[msg.sender].mul(myPrice);\n        lastPriceEarningsExtracted[msg.sender] = ytxFeePrice;\n        IERC20(ytx).transfer(msg.sender, earnings);\n    }\n\n    function extractTokensIfStuck(address _token, uint256 _amount) public onlyOwner {\n        IERC20(_token).transfer(owner(), _amount);\n    }\n\n    function extractETHIfStruck() public onlyOwner {\n        payable(address(owner())).transfer(address(this).balance);\n    }\n\n    // Used to check how much liquidity the specific user has locked\n    function getUserLockedLiquidity(address _user) public view returns (uint256) {\n        return initialLockedLiquidity[_user];\n    }\n    \n    function getYtxFee(address _user) public view returns (uint256) {\n        return ytxFee[_user];\n    }\n}",
  "sourcePath": "/Users/merunas/Desktop/ytx/ytx-contracts/contracts/LockLiquidityYTXETH.sol",
  "compiler": {
    "name": "solc",
    "version": "0.6.2+commit.bacdbe57.Emscripten.clang"
  },
  "schemaVersion": "3.3.2",
  "updatedAt": "2020-12-02T22:34:39.284Z",
  "devdoc": {
    "methods": {
      "owner()": {
        "details": "Returns the address of the current owner."
      },
      "renounceOwnership()": {
        "details": "Leaves the contract without owner. It will not be possible to call `onlyOwner` functions anymore. Can only be called by the current owner.     * NOTE: Renouncing ownership will leave the contract without an owner, thereby removing any functionality that is only available to the owner."
      },
      "transferOwnership(address)": {
        "details": "Transfers ownership of the contract to a new account (`newOwner`). Can only be called by the current owner."
      }
    }
  },
  "userdoc": {
    "methods": {},
    "notice": "This contract allows you to lock liquidity LP tokens and receive earnings It also allows you to extract those earnings. It's the treasury where the fee YTX is stored"
  }
}