{
  "contractName": "NFTManager",
  "abi": [
    {
      "anonymous": false,
      "inputs": [
        {
          "indexed": true,
          "internalType": "address",
          "name": "owner",
          "type": "address"
        },
        {
          "indexed": true,
          "internalType": "address",
          "name": "approved",
          "type": "address"
        },
        {
          "indexed": true,
          "internalType": "uint256",
          "name": "tokenId",
          "type": "uint256"
        }
      ],
      "name": "Approval",
      "type": "event"
    },
    {
      "anonymous": false,
      "inputs": [
        {
          "indexed": true,
          "internalType": "address",
          "name": "owner",
          "type": "address"
        },
        {
          "indexed": true,
          "internalType": "address",
          "name": "operator",
          "type": "address"
        },
        {
          "indexed": false,
          "internalType": "bool",
          "name": "approved",
          "type": "bool"
        }
      ],
      "name": "ApprovalForAll",
      "type": "event"
    },
    {
      "anonymous": false,
      "inputs": [
        {
          "indexed": true,
          "internalType": "address",
          "name": "previousOwner",
          "type": "address"
        },
        {
          "indexed": true,
          "internalType": "address",
          "name": "newOwner",
          "type": "address"
        }
      ],
      "name": "OwnershipTransferred",
      "type": "event"
    },
    {
      "anonymous": false,
      "inputs": [
        {
          "indexed": true,
          "internalType": "address",
          "name": "from",
          "type": "address"
        },
        {
          "indexed": true,
          "internalType": "address",
          "name": "to",
          "type": "address"
        },
        {
          "indexed": true,
          "internalType": "uint256",
          "name": "tokenId",
          "type": "uint256"
        }
      ],
      "name": "Transfer",
      "type": "event"
    },
    {
      "inputs": [
        {
          "internalType": "address",
          "name": "",
          "type": "address"
        }
      ],
      "name": "amountStaked",
      "outputs": [
        {
          "internalType": "uint256",
          "name": "",
          "type": "uint256"
        }
      ],
      "stateMutability": "view",
      "type": "function"
    },
    {
      "inputs": [
        {
          "internalType": "address",
          "name": "to",
          "type": "address"
        },
        {
          "internalType": "uint256",
          "name": "tokenId",
          "type": "uint256"
        }
      ],
      "name": "approve",
      "outputs": [],
      "stateMutability": "nonpayable",
      "type": "function"
    },
    {
      "inputs": [
        {
          "internalType": "address",
          "name": "owner",
          "type": "address"
        }
      ],
      "name": "balanceOf",
      "outputs": [
        {
          "internalType": "uint256",
          "name": "",
          "type": "uint256"
        }
      ],
      "stateMutability": "view",
      "type": "function"
    },
    {
      "inputs": [],
      "name": "baseURI",
      "outputs": [
        {
          "internalType": "string",
          "name": "",
          "type": "string"
        }
      ],
      "stateMutability": "view",
      "type": "function"
    },
    {
      "inputs": [
        {
          "internalType": "string",
          "name": "",
          "type": "string"
        }
      ],
      "name": "blueprints",
      "outputs": [
        {
          "internalType": "string",
          "name": "tokenURI",
          "type": "string"
        },
        {
          "internalType": "uint256",
          "name": "mintMax",
          "type": "uint256"
        },
        {
          "internalType": "uint256",
          "name": "currentMint",
          "type": "uint256"
        },
        {
          "internalType": "uint256",
          "name": "ytxCost",
          "type": "uint256"
        },
        {
          "internalType": "uint256",
          "name": "yfsCost",
          "type": "uint256"
        }
      ],
      "stateMutability": "view",
      "type": "function"
    },
    {
      "inputs": [
        {
          "internalType": "uint256",
          "name": "tokenId",
          "type": "uint256"
        }
      ],
      "name": "getApproved",
      "outputs": [
        {
          "internalType": "address",
          "name": "",
          "type": "address"
        }
      ],
      "stateMutability": "view",
      "type": "function"
    },
    {
      "inputs": [
        {
          "internalType": "address",
          "name": "owner",
          "type": "address"
        },
        {
          "internalType": "address",
          "name": "operator",
          "type": "address"
        }
      ],
      "name": "isApprovedForAll",
      "outputs": [
        {
          "internalType": "bool",
          "name": "",
          "type": "bool"
        }
      ],
      "stateMutability": "view",
      "type": "function"
    },
    {
      "inputs": [],
      "name": "lastId",
      "outputs": [
        {
          "internalType": "uint256",
          "name": "",
          "type": "uint256"
        }
      ],
      "stateMutability": "view",
      "type": "function"
    },
    {
      "inputs": [],
      "name": "name",
      "outputs": [
        {
          "internalType": "string",
          "name": "",
          "type": "string"
        }
      ],
      "stateMutability": "view",
      "type": "function"
    },
    {
      "inputs": [],
      "name": "oneDayInBlocks",
      "outputs": [
        {
          "internalType": "uint256",
          "name": "",
          "type": "uint256"
        }
      ],
      "stateMutability": "view",
      "type": "function"
    },
    {
      "inputs": [],
      "name": "owner",
      "outputs": [
        {
          "internalType": "address",
          "name": "",
          "type": "address"
        }
      ],
      "stateMutability": "view",
      "type": "function"
    },
    {
      "inputs": [
        {
          "internalType": "uint256",
          "name": "tokenId",
          "type": "uint256"
        }
      ],
      "name": "ownerOf",
      "outputs": [
        {
          "internalType": "address",
          "name": "",
          "type": "address"
        }
      ],
      "stateMutability": "view",
      "type": "function"
    },
    {
      "inputs": [],
      "name": "renounceOwnership",
      "outputs": [],
      "stateMutability": "nonpayable",
      "type": "function"
    },
    {
      "inputs": [
        {
          "internalType": "address",
          "name": "from",
          "type": "address"
        },
        {
          "internalType": "address",
          "name": "to",
          "type": "address"
        },
        {
          "internalType": "uint256",
          "name": "tokenId",
          "type": "uint256"
        }
      ],
      "name": "safeTransferFrom",
      "outputs": [],
      "stateMutability": "nonpayable",
      "type": "function"
    },
    {
      "inputs": [
        {
          "internalType": "address",
          "name": "from",
          "type": "address"
        },
        {
          "internalType": "address",
          "name": "to",
          "type": "address"
        },
        {
          "internalType": "uint256",
          "name": "tokenId",
          "type": "uint256"
        },
        {
          "internalType": "bytes",
          "name": "_data",
          "type": "bytes"
        }
      ],
      "name": "safeTransferFrom",
      "outputs": [],
      "stateMutability": "nonpayable",
      "type": "function"
    },
    {
      "inputs": [
        {
          "internalType": "address",
          "name": "operator",
          "type": "address"
        },
        {
          "internalType": "bool",
          "name": "approved",
          "type": "bool"
        }
      ],
      "name": "setApprovalForAll",
      "outputs": [],
      "stateMutability": "nonpayable",
      "type": "function"
    },
    {
      "inputs": [
        {
          "internalType": "bytes4",
          "name": "interfaceId",
          "type": "bytes4"
        }
      ],
      "name": "supportsInterface",
      "outputs": [
        {
          "internalType": "bool",
          "name": "",
          "type": "bool"
        }
      ],
      "stateMutability": "view",
      "type": "function"
    },
    {
      "inputs": [],
      "name": "symbol",
      "outputs": [
        {
          "internalType": "string",
          "name": "",
          "type": "string"
        }
      ],
      "stateMutability": "view",
      "type": "function"
    },
    {
      "inputs": [
        {
          "internalType": "address",
          "name": "",
          "type": "address"
        }
      ],
      "name": "timeStaked",
      "outputs": [
        {
          "internalType": "uint256",
          "name": "",
          "type": "uint256"
        }
      ],
      "stateMutability": "view",
      "type": "function"
    },
    {
      "inputs": [
        {
          "internalType": "uint256",
          "name": "index",
          "type": "uint256"
        }
      ],
      "name": "tokenByIndex",
      "outputs": [
        {
          "internalType": "uint256",
          "name": "",
          "type": "uint256"
        }
      ],
      "stateMutability": "view",
      "type": "function"
    },
    {
      "inputs": [
        {
          "internalType": "address",
          "name": "owner",
          "type": "address"
        },
        {
          "internalType": "uint256",
          "name": "index",
          "type": "uint256"
        }
      ],
      "name": "tokenOfOwnerByIndex",
      "outputs": [
        {
          "internalType": "uint256",
          "name": "",
          "type": "uint256"
        }
      ],
      "stateMutability": "view",
      "type": "function"
    },
    {
      "inputs": [
        {
          "internalType": "uint256",
          "name": "tokenId",
          "type": "uint256"
        }
      ],
      "name": "tokenURI",
      "outputs": [
        {
          "internalType": "string",
          "name": "",
          "type": "string"
        }
      ],
      "stateMutability": "view",
      "type": "function"
    },
    {
      "inputs": [],
      "name": "totalSupply",
      "outputs": [
        {
          "internalType": "uint256",
          "name": "",
          "type": "uint256"
        }
      ],
      "stateMutability": "view",
      "type": "function"
    },
    {
      "inputs": [
        {
          "internalType": "address",
          "name": "from",
          "type": "address"
        },
        {
          "internalType": "address",
          "name": "to",
          "type": "address"
        },
        {
          "internalType": "uint256",
          "name": "tokenId",
          "type": "uint256"
        }
      ],
      "name": "transferFrom",
      "outputs": [],
      "stateMutability": "nonpayable",
      "type": "function"
    },
    {
      "inputs": [
        {
          "internalType": "address",
          "name": "newOwner",
          "type": "address"
        }
      ],
      "name": "transferOwnership",
      "outputs": [],
      "stateMutability": "nonpayable",
      "type": "function"
    },
    {
      "inputs": [],
      "name": "yfs",
      "outputs": [
        {
          "internalType": "address",
          "name": "",
          "type": "address"
        }
      ],
      "stateMutability": "view",
      "type": "function"
    },
    {
      "inputs": [],
      "name": "ytx",
      "outputs": [
        {
          "internalType": "address",
          "name": "",
          "type": "address"
        }
      ],
      "stateMutability": "view",
      "type": "function"
    },
    {
      "inputs": [
        {
          "internalType": "address",
          "name": "_ytx",
          "type": "address"
        },
        {
          "internalType": "address",
          "name": "_yfs",
          "type": "address"
        },
        {
          "internalType": "string",
          "name": "baseUri_",
          "type": "string"
        }
      ],
      "name": "initialize",
      "outputs": [],
      "stateMutability": "nonpayable",
      "type": "function"
    },
    {
      "inputs": [
        {
          "internalType": "address",
          "name": "_ytx",
          "type": "address"
        }
      ],
      "name": "setYTX",
      "outputs": [],
      "stateMutability": "nonpayable",
      "type": "function"
    },
    {
      "inputs": [
        {
          "internalType": "address",
          "name": "_yfs",
          "type": "address"
        }
      ],
      "name": "setYFS",
      "outputs": [],
      "stateMutability": "nonpayable",
      "type": "function"
    },
    {
      "inputs": [
        {
          "internalType": "string",
          "name": "baseURI_",
          "type": "string"
        }
      ],
      "name": "setBaseURI",
      "outputs": [],
      "stateMutability": "nonpayable",
      "type": "function"
    },
    {
      "inputs": [
        {
          "internalType": "uint256",
          "name": "_amount",
          "type": "uint256"
        }
      ],
      "name": "stakeYTX",
      "outputs": [],
      "stateMutability": "nonpayable",
      "type": "function"
    },
    {
      "inputs": [
        {
          "internalType": "uint256",
          "name": "_amount",
          "type": "uint256"
        }
      ],
      "name": "unstakeYTXAndReceiveYFS",
      "outputs": [],
      "stateMutability": "nonpayable",
      "type": "function"
    },
    {
      "inputs": [
        {
          "internalType": "string",
          "name": "_tokenURI",
          "type": "string"
        },
        {
          "internalType": "uint256",
          "name": "_maxMint",
          "type": "uint256"
        },
        {
          "internalType": "uint256",
          "name": "_ytxCost",
          "type": "uint256"
        },
        {
          "internalType": "uint256",
          "name": "_yfsCost",
          "type": "uint256"
        }
      ],
      "name": "createBlueprint",
      "outputs": [],
      "stateMutability": "nonpayable",
      "type": "function"
    },
    {
      "inputs": [
        {
          "internalType": "string",
          "name": "_tokenURI",
          "type": "string"
        }
      ],
      "name": "safeMint",
      "outputs": [],
      "stateMutability": "nonpayable",
      "type": "function"
    },
    {
      "inputs": [
        {
          "internalType": "address",
          "name": "_token",
          "type": "address"
        },
        {
          "internalType": "uint256",
          "name": "_amount",
          "type": "uint256"
        }
      ],
      "name": "extractTokensIfStuck",
      "outputs": [],
      "stateMutability": "nonpayable",
      "type": "function"
    },
    {
      "inputs": [],
      "name": "extractETHIfStruck",
      "outputs": [],
      "stateMutability": "nonpayable",
      "type": "function"
    }
  ],
  "bytecode": "0x608060405234801561001057600080fd5b50614d6f806100206000396000f3fe608060405234801561001057600080fd5b50600436106102775760003560e01c8063715018a611610160578063b88d4fde116100d8578063d6e5e7a21161008c578063ef40a67011610071578063ef40a67014610bc8578063f2978d9814610bfb578063f2fde38b14610c0357610277565b8063d6e5e7a214610b5a578063e985e9c514610b8d57610277565b8063c4c5d8fc116100bd578063c4c5d8fc14610b2d578063c6a67b5414610b35578063c87b56dd14610b3d57610277565b8063b88d4fde14610a52578063c1292cc314610b2557610277565b8063a22cb4651161012f578063a9a1015a11610114578063a9a1015a146109df578063b28053fa14610a18578063b37da7c514610a3557610277565b8063a22cb465146108f3578063a601bc6a1461092e57610277565b8063715018a6146108a8578063778f8cb0146108b05780638da5cb5b146108e357806395d89b41146108eb57610277565b80632f745c59116101f357806355f804b3116101c2578063695850fb116101a7578063695850fb146107c75780636c0360eb1461086d57806370a082311461087557610277565b806355f804b3146107045780636352211e146107aa57610277565b80632f745c591461059f57806342842e0e146105d85780634571e3a61461061b5780634f6ccce7146106e757610277565b8063095ea7b31161024a5780631670a6801161022f5780631670a6801461040857806318160ddd1461054257806323b872dd1461055c57610277565b8063095ea7b31461039c57806311996cdb146103d557610277565b806301ffc9a71461027c57806306fdde03146102cf578063081812fc1461034c57806309338b5214610392575b600080fd5b6102bb6004803603602081101561029257600080fd5b50357fffffffff0000000000000000000000000000000000000000000000000000000016610c36565b604080519115158252519081900360200190f35b6102d7610c71565b6040805160208082528351818301528351919283929083019185019080838360005b838110156103115781810151838201526020016102f9565b50505050905090810190601f16801561033e5780820380516001836020036101000a031916815260200191505b509250505060405180910390f35b6103696004803603602081101561036257600080fd5b5035610d26565b6040805173ffffffffffffffffffffffffffffffffffffffff9092168252519081900360200190f35b61039a610daf565b005b61039a600480360360408110156103b257600080fd5b5073ffffffffffffffffffffffffffffffffffffffff8135169060200135610e90565b61039a600480360360208110156103eb57600080fd5b503573ffffffffffffffffffffffffffffffffffffffff16610fd3565b6104ae6004803603602081101561041e57600080fd5b81019060208101813564010000000081111561043957600080fd5b82018360208201111561044b57600080fd5b8035906020019184600183028401116401000000008311171561046d57600080fd5b91908080601f0160208091040260200160405190810160405280939291908181526020018383808284376000920191909152509295506110ac945050505050565b6040518080602001868152602001858152602001848152602001838152602001828103825287818151815260200191508051906020019080838360005b838110156105035781810151838201526020016104eb565b50505050905090810190601f1680156105305780820380516001836020036101000a031916815260200191505b50965050505050505060405180910390f35b61054a61118f565b60408051918252519081900360200190f35b61039a6004803603606081101561057257600080fd5b5073ffffffffffffffffffffffffffffffffffffffff8135811691602081013590911690604001356111a0565b61054a600480360360408110156105b557600080fd5b5073ffffffffffffffffffffffffffffffffffffffff8135169060200135611211565b61039a600480360360608110156105ee57600080fd5b5073ffffffffffffffffffffffffffffffffffffffff81358116916020810135909116906040013561124f565b61039a6004803603606081101561063157600080fd5b73ffffffffffffffffffffffffffffffffffffffff823581169260208101359091169181019060608101604082013564010000000081111561067257600080fd5b82018360208201111561068457600080fd5b803590602001918460018302840111640100000000831117156106a657600080fd5b91908080601f01602080910402602001604051908101604052809392919081815260200183838082843760009201919091525092955061126a945050505050565b61054a600480360360208110156106fd57600080fd5b503561145b565b61039a6004803603602081101561071a57600080fd5b81019060208101813564010000000081111561073557600080fd5b82018360208201111561074757600080fd5b8035906020019184600183028401116401000000008311171561076957600080fd5b91908080601f016020809104026020016040519081016040528093929190818152602001838380828437600092019190915250929550611477945050505050565b610369600480360360208110156107c057600080fd5b5035611511565b61039a600480360360208110156107dd57600080fd5b8101906020810181356401000000008111156107f857600080fd5b82018360208201111561080a57600080fd5b8035906020019184600183028401116401000000008311171561082c57600080fd5b91908080601f01602080910402602001604051908101604052809392919081815260200183838082843760009201919091525092955061153f945050505050565b6102d7611f57565b61054a6004803603602081101561088b57600080fd5b503573ffffffffffffffffffffffffffffffffffffffff16611fd6565b61039a612072565b61054a600480360360208110156108c657600080fd5b503573ffffffffffffffffffffffffffffffffffffffff16612172565b610369612184565b6102d76121a0565b61039a6004803603604081101561090957600080fd5b5073ffffffffffffffffffffffffffffffffffffffff8135169060200135151561221f565b61039a6004803603608081101561094457600080fd5b81019060208101813564010000000081111561095f57600080fd5b82018360208201111561097157600080fd5b8035906020019184600183028401116401000000008311171561099357600080fd5b91908080601f0160208091040260200160405190810160405280939291908181526020018383808284376000920191909152509295505082359350505060208101359060400135612390565b61039a600480360360408110156109f557600080fd5b5073ffffffffffffffffffffffffffffffffffffffff8135169060200135612529565b61039a60048036036020811015610a2e57600080fd5b5035612672565b61039a60048036036020811015610a4b57600080fd5b5035612868565b61039a60048036036080811015610a6857600080fd5b73ffffffffffffffffffffffffffffffffffffffff823581169260208101359091169160408201359190810190608081016060820135640100000000811115610ab057600080fd5b820183602082011115610ac257600080fd5b80359060200191846001830284011164010000000083111715610ae457600080fd5b91908080601f016020809104026020016040519081016040528093929190818152602001838380828437600092019190915250929550612a53945050505050565b61054a612ac5565b610369612acb565b610369612ae8565b6102d760048036036020811015610b5357600080fd5b5035612b04565b61039a60048036036020811015610b7057600080fd5b503573ffffffffffffffffffffffffffffffffffffffff16612e3d565b6102bb60048036036040811015610ba357600080fd5b5073ffffffffffffffffffffffffffffffffffffffff81358116916020013516612f15565b61054a60048036036020811015610bde57600080fd5b503573ffffffffffffffffffffffffffffffffffffffff16612f50565b61054a612f62565b61039a60048036036020811015610c1957600080fd5b503573ffffffffffffffffffffffffffffffffffffffff16612f69565b7fffffffff00000000000000000000000000000000000000000000000000000000811660009081526097602052604090205460ff165b919050565b60ce8054604080516020601f60027fffffffffffffffffffffffffffffffffffffffffffffffffffffffffffffffff610100600188161502019095169490940493840181900481028201810190925282815260609390929091830182828015610d1b5780601f10610cf057610100808354040283529160200191610d1b565b820191906000526020600020905b815481529060010190602001808311610cfe57829003601f168201915b505050505090505b90565b6000610d31826130f4565b610d86576040517f08c379a000000000000000000000000000000000000000000000000000000000815260040180806020018281038252602c815260200180614b94602c913960400191505060405180910390fd5b50600090815260cc602052604090205473ffffffffffffffffffffffffffffffffffffffff1690565b610db7613107565b60655473ffffffffffffffffffffffffffffffffffffffff908116911614610e4057604080517f08c379a000000000000000000000000000000000000000000000000000000000815260206004820181905260248201527f4f776e61626c653a2063616c6c6572206973206e6f7420746865206f776e6572604482015290519081900360640190fd5b610e48612184565b73ffffffffffffffffffffffffffffffffffffffff166108fc479081150290604051600060405180830381858888f19350505050158015610e8d573d6000803e3d6000fd5b50565b6000610e9b82611511565b90508073ffffffffffffffffffffffffffffffffffffffff168373ffffffffffffffffffffffffffffffffffffffff161415610f22576040517f08c379a0000000000000000000000000000000000000000000000000000000008152600401808060200182810382526021815260200180614c726021913960400191505060405180910390fd5b8073ffffffffffffffffffffffffffffffffffffffff16610f41613107565b73ffffffffffffffffffffffffffffffffffffffff161480610f6f5750610f6f81610f6a613107565b612f15565b610fc4576040517f08c379a0000000000000000000000000000000000000000000000000000000008152600401808060200182810382526038815260200180614a986038913960400191505060405180910390fd5b610fce838361310b565b505050565b610fdb613107565b60655473ffffffffffffffffffffffffffffffffffffffff90811691161461106457604080517f08c379a000000000000000000000000000000000000000000000000000000000815260206004820181905260248201527f4f776e61626c653a2063616c6c6572206973206e6f7420746865206f776e6572604482015290519081900360640190fd5b61010080547fffffffffffffffffffffffff00000000000000000000000000000000000000001673ffffffffffffffffffffffffffffffffffffffff92909216919091179055565b805160208183018101805160fd8252928201938201939093209190925280546040805160026001841615610100027fffffffffffffffffffffffffffffffffffffffffffffffffffffffffffffffff0190931692909204601f810185900485028301850190915280825291929091839183018282801561116d5780601f106111425761010080835404028352916020019161116d565b820191906000526020600020905b81548152906001019060200180831161115057829003601f168201915b5050505050908060010154908060020154908060030154908060040154905085565b600061119b60ca6131ab565b905090565b6111b16111ab613107565b826131b6565b611206576040517f08c379a0000000000000000000000000000000000000000000000000000000008152600401808060200182810382526031815260200180614c936031913960400191505060405180910390fd5b610fce8383836132a8565b73ffffffffffffffffffffffffffffffffffffffff8216600090815260c960205260408120611246908363ffffffff61349516565b90505b92915050565b610fce83838360405180602001604052806000815250612a53565b600054610100900460ff168061128357506112836134a1565b80611291575060005460ff16155b6112e6576040517f08c379a000000000000000000000000000000000000000000000000000000000815260040180806020018281038252602e815260200180614bec602e913960400191505060405180910390fd5b600054610100900460ff1615801561134c57600080547fffffffffffffffffffffffffffffffffffffffffffffffffffffffffffffff007fffffffffffffffffffffffffffffffffffffffffffffffffffffffffffff00ff909116610100171660011790555b60ff805473ffffffffffffffffffffffffffffffffffffffff8087167fffffffffffffffffffffffff000000000000000000000000000000000000000092831617909255610100805492861692909116919091179055611964610101556113b2826134a7565b6114266040518060400160405280600a81526020017f4e46544d616e61676572000000000000000000000000000000000000000000008152506040518060400160405280600681526020017f5954584e465400000000000000000000000000000000000000000000000000008152506134be565b801561145557600080547fffffffffffffffffffffffffffffffffffffffffffffffffffffffffffff00ff1690555b50505050565b60008061146f60ca8463ffffffff6135ed16565b509392505050565b61147f613107565b60655473ffffffffffffffffffffffffffffffffffffffff90811691161461150857604080517f08c379a000000000000000000000000000000000000000000000000000000000815260206004820181905260248201527f4f776e61626c653a2063616c6c6572206973206e6f7420746865206f776e6572604482015290519081900360640190fd5b610e8d816134a7565b600061124982604051806060016040528060298152602001614afa6029913960ca919063ffffffff61360916565b6040805160208082018352600082529151835191927fc5d2460186f7233c927e7db2dcc703c0e500b653ca82273b7bfad8045d85a4709260fd928692909182918401908083835b602083106115c357805182527fffffffffffffffffffffffffffffffffffffffffffffffffffffffffffffffe09092019160209182019101611586565b6001836020036101000a038019825116818451168082178552505050505050905001915050908152602001604051809103902060000160405180828054600181600116156101000203166002900480156116545780601f10611632576101008083540402835291820191611654565b820191906000526020600020905b815481529060010190602001808311611640575b50509150506040518091039020146116cd57604080517f08c379a000000000000000000000000000000000000000000000000000000000815260206004820152601c60248201527f5468617420746f6b656e2055524920646f65736e277420657869737400000000604482015290519081900360640190fd5b60fd826040518082805190602001908083835b6020831061171d57805182527fffffffffffffffffffffffffffffffffffffffffffffffffffffffffffffffe090920191602091820191016116e0565b51815160209384036101000a7fffffffffffffffffffffffffffffffffffffffffffffffffffffffffffffffff01801990921691161790529201948552506040519384900381018420600201548651909460fd9450879350918291908401908083835b602083106117bd57805182527fffffffffffffffffffffffffffffffffffffffffffffffffffffffffffffffe09092019160209182019101611780565b6001836020036101000a0380198251168184511680821785525050505050509050019150509081526020016040518091039020600101541161184a576040517f08c379a0000000000000000000000000000000000000000000000000000000008152600401808060200182810382526040815260200180614cfa6040913960400191505060405180910390fd5b60ff54604080517fdd62ed3e000000000000000000000000000000000000000000000000000000008152336004820152306024820152905160009273ffffffffffffffffffffffffffffffffffffffff169163dd62ed3e916044808301926020929190829003018186803b1580156118c157600080fd5b505afa1580156118d5573d6000803e3d6000fd5b505050506040513d60208110156118eb57600080fd5b505161010054604080517fdd62ed3e000000000000000000000000000000000000000000000000000000008152336004820152306024820152905192935060009273ffffffffffffffffffffffffffffffffffffffff9092169163dd62ed3e91604480820192602092909190829003018186803b15801561196b57600080fd5b505afa15801561197f573d6000803e3d6000fd5b505050506040513d602081101561199557600080fd5b5051604051855191925060fd91869190819060208401908083835b602083106119ed57805182527fffffffffffffffffffffffffffffffffffffffffffffffffffffffffffffffe090920191602091820191016119b0565b51815160209384036101000a7fffffffffffffffffffffffffffffffffffffffffffffffffffffffffffffffff01801990921691161790529201948552506040519384900301909220600301548410159150611a969050576040517f08c379a000000000000000000000000000000000000000000000000000000000815260040180806020018281038252603d815260200180614954603d913960400191505060405180910390fd5b60fd846040518082805190602001908083835b60208310611ae657805182527fffffffffffffffffffffffffffffffffffffffffffffffffffffffffffffffe09092019160209182019101611aa9565b51815160209384036101000a7fffffffffffffffffffffffffffffffffffffffffffffffffffffffffffffffff01801990921691161790529201948552506040519384900301909220600401548310159150611b8f9050576040517f08c379a000000000000000000000000000000000000000000000000000000000815260040180806020018281038252603d8152602001806149e5603d913960400191505060405180910390fd5b60ff60009054906101000a900473ffffffffffffffffffffffffffffffffffffffff1673ffffffffffffffffffffffffffffffffffffffff166323b872dd333060fd886040518082805190602001908083835b60208310611c1f57805182527fffffffffffffffffffffffffffffffffffffffffffffffffffffffffffffffe09092019160209182019101611be2565b51815160209384036101000a7fffffffffffffffffffffffffffffffffffffffffffffffffffffffffffffffff01801990921691161790529201948552506040805194859003820185206003015460e089901b7fffffffff0000000000000000000000000000000000000000000000000000000016865273ffffffffffffffffffffffffffffffffffffffff97881660048701529590961660248501526044840194909452505091516064808401938290030181600087803b158015611ce457600080fd5b505af1158015611cf8573d6000803e3d6000fd5b505050506040513d6020811015611d0e57600080fd5b505061010054604051855173ffffffffffffffffffffffffffffffffffffffff909216916323b872dd913391309160fd918a9190819060208401908083835b60208310611d8a57805182527fffffffffffffffffffffffffffffffffffffffffffffffffffffffffffffffe09092019160209182019101611d4d565b51815160209384036101000a7fffffffffffffffffffffffffffffffffffffffffffffffffffffffffffffffff018019909216911617905292019485525060408051948590038201852060049081015460e08a901b7fffffffff0000000000000000000000000000000000000000000000000000000016875273ffffffffffffffffffffffffffffffffffffffff988916918701919091529590961660248501526044840194909452505091516064808401938290030181600087803b158015611e5357600080fd5b505af1158015611e67573d6000803e3d6000fd5b505050506040513d6020811015611e7d57600080fd5b5050604051845160fd918691819060208401908083835b60208310611ed157805182527fffffffffffffffffffffffffffffffffffffffffffffffffffffffffffffffe09092019160209182019101611e94565b51815160209384036101000a7fffffffffffffffffffffffffffffffffffffffffffffffffffffffffffffffff01801990921691161790529201948552506040805194859003820185206002018054600190810190915560fe805490910190819055918501905260008452611f4b93339350909150613620565b61145560fe548561368c565b60d18054604080516020601f60027fffffffffffffffffffffffffffffffffffffffffffffffffffffffffffffffff610100600188161502019095169490940493840181900481028201810190925282815260609390929091830182828015610d1b5780601f10610cf057610100808354040283529160200191610d1b565b600073ffffffffffffffffffffffffffffffffffffffff8216612044576040517f08c379a000000000000000000000000000000000000000000000000000000000815260040180806020018281038252602a815260200180614ad0602a913960400191505060405180910390fd5b73ffffffffffffffffffffffffffffffffffffffff8216600090815260c960205260409020611249906131ab565b61207a613107565b60655473ffffffffffffffffffffffffffffffffffffffff90811691161461210357604080517f08c379a000000000000000000000000000000000000000000000000000000000815260206004820181905260248201527f4f776e61626c653a2063616c6c6572206973206e6f7420746865206f776e6572604482015290519081900360640190fd5b60655460405160009173ffffffffffffffffffffffffffffffffffffffff16907f8be0079c531659141344cd1fd0a4f28419497f9722a3daafe3b4186f6b6457e0908390a3606580547fffffffffffffffffffffffff0000000000000000000000000000000000000000169055565b60fb6020526000908152604090205481565b60655473ffffffffffffffffffffffffffffffffffffffff1690565b60cf8054604080516020601f60027fffffffffffffffffffffffffffffffffffffffffffffffffffffffffffffffff610100600188161502019095169490940493840181900481028201810190925282815260609390929091830182828015610d1b5780601f10610cf057610100808354040283529160200191610d1b565b612227613107565b73ffffffffffffffffffffffffffffffffffffffff168273ffffffffffffffffffffffffffffffffffffffff1614156122c157604080517f08c379a000000000000000000000000000000000000000000000000000000000815260206004820152601960248201527f4552433732313a20617070726f766520746f2063616c6c657200000000000000604482015290519081900360640190fd5b8060cd60006122ce613107565b73ffffffffffffffffffffffffffffffffffffffff90811682526020808301939093526040918201600090812091871680825291909352912080547fffffffffffffffffffffffffffffffffffffffffffffffffffffffffffffff00169215159290921790915561233d613107565b604080518415158152905173ffffffffffffffffffffffffffffffffffffffff92909216917f17307eab39ab6107e8899845ad3d59bd9653f200f220920489ca2b5937696c319181900360200190a35050565b612398613107565b60655473ffffffffffffffffffffffffffffffffffffffff90811691161461242157604080517f08c379a000000000000000000000000000000000000000000000000000000000815260206004820181905260248201527f4f776e61626c653a2063616c6c6572206973206e6f7420746865206f776e6572604482015290519081900360640190fd5b6040518060a00160405280858152602001848152602001600081526020018381526020018281525060fd856040518082805190602001908083835b6020831061249957805182527fffffffffffffffffffffffffffffffffffffffffffffffffffffffffffffffe0909201916020918201910161245c565b51815160209384036101000a7fffffffffffffffffffffffffffffffffffffffffffffffffffffffffffffffff01801990921691161790529201948552506040519384900381019093208451805191946124f8945085935001906148bb565b5060208201516001820155604082015160028201556060820151600382015560809091015160049091015550505050565b612531613107565b60655473ffffffffffffffffffffffffffffffffffffffff9081169116146125ba57604080517f08c379a000000000000000000000000000000000000000000000000000000000815260206004820181905260248201527f4f776e61626c653a2063616c6c6572206973206e6f7420746865206f776e6572604482015290519081900360640190fd5b8173ffffffffffffffffffffffffffffffffffffffff1663a9059cbb6125de612184565b836040518363ffffffff1660e01b8152600401808373ffffffffffffffffffffffffffffffffffffffff1673ffffffffffffffffffffffffffffffffffffffff16815260200182815260200192505050602060405180830381600087803b15801561264857600080fd5b505af115801561265c573d6000803e3d6000fd5b505050506040513d602081101561145557600080fd5b33600090815260fc602052604090205481106126d9576040517f08c379a000000000000000000000000000000000000000000000000000000000815260040180806020018281038252602e815260200180614b23602e913960400191505060405180910390fd5b6101015433600090815260fb602090815260408083205460fc909252822054919261271c929091612710919063ffffffff61370916565b9063ffffffff61377c16565b33600090815260fb6020908152604080832043905560fc90915290205490915061274c908363ffffffff6137be16565b33600081815260fc6020526040808220939093556101005483517f40c10f19000000000000000000000000000000000000000000000000000000008152600481019390935260248301859052925173ffffffffffffffffffffffffffffffffffffffff909316926340c10f1992604480820193929182900301818387803b1580156127d657600080fd5b505af11580156127ea573d6000803e3d6000fd5b505060ff54604080517fa9059cbb00000000000000000000000000000000000000000000000000000000815233600482015260248101879052905173ffffffffffffffffffffffffffffffffffffffff909216935063a9059cbb92506044808201926020929091908290030181600087803b15801561264857600080fd5b60ff54604080517fdd62ed3e000000000000000000000000000000000000000000000000000000008152336004820152306024820152905160009273ffffffffffffffffffffffffffffffffffffffff169163dd62ed3e916044808301926020929190829003018186803b1580156128df57600080fd5b505afa1580156128f3573d6000803e3d6000fd5b505050506040513d602081101561290957600080fd5b5051905081811015612966576040517f08c379a0000000000000000000000000000000000000000000000000000000008152600401808060200182810382526036815260200180614cc46036913960400191505060405180910390fd5b60ff54604080517f23b872dd00000000000000000000000000000000000000000000000000000000815233600482015230602482015260448101859052905173ffffffffffffffffffffffffffffffffffffffff909216916323b872dd916064808201926020929091908290030181600087803b1580156129e657600080fd5b505af11580156129fa573d6000803e3d6000fd5b505050506040513d6020811015612a1057600080fd5b505033600090815260fb6020908152604080832043905560fc909152902054612a3f908363ffffffff61380016565b33600090815260fc60205260409020555050565b612a64612a5e613107565b836131b6565b612ab9576040517f08c379a0000000000000000000000000000000000000000000000000000000008152600401808060200182810382526031815260200180614c936031913960400191505060405180910390fd5b61145584848484613874565b60fe5481565b6101005473ffffffffffffffffffffffffffffffffffffffff1681565b60ff5473ffffffffffffffffffffffffffffffffffffffff1681565b6060612b0f826130f4565b612b64576040517f08c379a000000000000000000000000000000000000000000000000000000000815260040180806020018281038252602f815260200180614c43602f913960400191505060405180910390fd5b600082815260d0602090815260409182902080548351601f60027fffffffffffffffffffffffffffffffffffffffffffffffffffffffffffffffff610100600186161502019093169290920491820184900484028101840190945280845260609392830182828015612c175780601f10612bec57610100808354040283529160200191612c17565b820191906000526020600020905b815481529060010190602001808311612bfa57829003601f168201915b505060d15493945050505060027fffffffffffffffffffffffffffffffffffffffffffffffffffffffffffffffff6101006001841615020190911604612c5e579050610c6c565b805115612d4d5760d1816040516020018083805460018160011615610100020316600290048015612cc65780601f10612ca4576101008083540402835291820191612cc6565b820191906000526020600020905b815481529060010190602001808311612cb2575b5050825160208401908083835b60208310612d1057805182527fffffffffffffffffffffffffffffffffffffffffffffffffffffffffffffffe09092019160209182019101612cd3565b6001836020036101000a03801982511681845116808217855250505050505090500192505050604051602081830303815290604052915050610c6c565b60d1612d58846138e0565b6040516020018083805460018160011615610100020316600290048015612db65780601f10612d94576101008083540402835291820191612db6565b820191906000526020600020905b815481529060010190602001808311612da2575b5050825160208401908083835b60208310612e0057805182527fffffffffffffffffffffffffffffffffffffffffffffffffffffffffffffffe09092019160209182019101612dc3565b6001836020036101000a03801982511681845116808217855250505050505090500192505050604051602081830303815290604052915050919050565b612e45613107565b60655473ffffffffffffffffffffffffffffffffffffffff908116911614612ece57604080517f08c379a000000000000000000000000000000000000000000000000000000000815260206004820181905260248201527f4f776e61626c653a2063616c6c6572206973206e6f7420746865206f776e6572604482015290519081900360640190fd5b60ff80547fffffffffffffffffffffffff00000000000000000000000000000000000000001673ffffffffffffffffffffffffffffffffffffffff92909216919091179055565b73ffffffffffffffffffffffffffffffffffffffff918216600090815260cd6020908152604080832093909416825291909152205460ff1690565b60fc6020526000908152604090205481565b6101015481565b612f71613107565b60655473ffffffffffffffffffffffffffffffffffffffff908116911614612ffa57604080517f08c379a000000000000000000000000000000000000000000000000000000000815260206004820181905260248201527f4f776e61626c653a2063616c6c6572206973206e6f7420746865206f776e6572604482015290519081900360640190fd5b73ffffffffffffffffffffffffffffffffffffffff8116613066576040517f08c379a0000000000000000000000000000000000000000000000000000000008152600401808060200182810382526026815260200180614a226026913960400191505060405180910390fd5b60655460405173ffffffffffffffffffffffffffffffffffffffff8084169216907f8be0079c531659141344cd1fd0a4f28419497f9722a3daafe3b4186f6b6457e090600090a3606580547fffffffffffffffffffffffff00000000000000000000000000000000000000001673ffffffffffffffffffffffffffffffffffffffff92909216919091179055565b600061124960ca8363ffffffff6139f616565b3390565b600081815260cc6020526040902080547fffffffffffffffffffffffff00000000000000000000000000000000000000001673ffffffffffffffffffffffffffffffffffffffff8416908117909155819061316582611511565b73ffffffffffffffffffffffffffffffffffffffff167f8c5be1e5ebec7d5bd14f71427d1e84f3dd0314c0f7b2291e5b200ac8c7c3b92560405160405180910390a45050565b600061124982613a02565b60006131c1826130f4565b613216576040517f08c379a000000000000000000000000000000000000000000000000000000000815260040180806020018281038252602c815260200180614a6c602c913960400191505060405180910390fd5b600061322183611511565b90508073ffffffffffffffffffffffffffffffffffffffff168473ffffffffffffffffffffffffffffffffffffffff16148061329057508373ffffffffffffffffffffffffffffffffffffffff1661327884610d26565b73ffffffffffffffffffffffffffffffffffffffff16145b806132a057506132a08185612f15565b949350505050565b8273ffffffffffffffffffffffffffffffffffffffff166132c882611511565b73ffffffffffffffffffffffffffffffffffffffff1614613334576040517f08c379a0000000000000000000000000000000000000000000000000000000008152600401808060200182810382526029815260200180614c1a6029913960400191505060405180910390fd5b73ffffffffffffffffffffffffffffffffffffffff82166133a0576040517f08c379a0000000000000000000000000000000000000000000000000000000008152600401808060200182810382526024815260200180614a486024913960400191505060405180910390fd5b6133ab838383610fce565b6133b660008261310b565b73ffffffffffffffffffffffffffffffffffffffff8316600090815260c9602052604090206133eb908263ffffffff613a0616565b5073ffffffffffffffffffffffffffffffffffffffff8216600090815260c960205260409020613421908263ffffffff613a1216565b5061343460ca828463ffffffff613a1e16565b50808273ffffffffffffffffffffffffffffffffffffffff168473ffffffffffffffffffffffffffffffffffffffff167fddf252ad1be2c89b69c2b068fc378daa952ba7f163c4a11628f55a4df523b3ef60405160405180910390a4505050565b60006112468383613a41565b303b1590565b80516134ba9060d19060208401906148bb565b5050565b600054610100900460ff16806134d757506134d76134a1565b806134e5575060005460ff16155b61353a576040517f08c379a000000000000000000000000000000000000000000000000000000000815260040180806020018281038252602e815260200180614bec602e913960400191505060405180910390fd5b600054610100900460ff161580156135a057600080547fffffffffffffffffffffffffffffffffffffffffffffffffffffffffffffff007fffffffffffffffffffffffffffffffffffffffffffffffffffffffffffff00ff909116610100171660011790555b6135a8613abf565b6135b0613bd2565b6135ba8383613cdd565b8015610fce57600080547fffffffffffffffffffffffffffffffffffffffffffffffffffffffffffff00ff169055505050565b60008080806135fc8686613e62565b9097909650945050505050565b6000613616848484613ef7565b90505b9392505050565b61362a8383613fdb565b6136376000848484614170565b610fce576040517f08c379a00000000000000000000000000000000000000000000000000000000081526004018080602001828103825260328152602001806149b36032913960400191505060405180910390fd5b613695826130f4565b6136ea576040517f08c379a000000000000000000000000000000000000000000000000000000000815260040180806020018281038252602c815260200180614bc0602c913960400191505060405180910390fd5b600082815260d0602090815260409091208251610fce928401906148bb565b60008261371857506000611249565b8282028284828161372557fe5b0414611246576040517f08c379a0000000000000000000000000000000000000000000000000000000008152600401808060200182810382526021815260200180614b736021913960400191505060405180910390fd5b600061124683836040518060400160405280601a81526020017f536166654d6174683a206469766973696f6e206279207a65726f0000000000008152506144c6565b600061124683836040518060400160405280601e81526020017f536166654d6174683a207375627472616374696f6e206f766572666c6f770000815250614545565b60008282018381101561124657604080517f08c379a000000000000000000000000000000000000000000000000000000000815260206004820152601b60248201527f536166654d6174683a206164646974696f6e206f766572666c6f770000000000604482015290519081900360640190fd5b61387f8484846132a8565b61388b84848484614170565b611455576040517f08c379a00000000000000000000000000000000000000000000000000000000081526004018080602001828103825260328152602001806149b36032913960400191505060405180910390fd5b606081613921575060408051808201909152600181527f30000000000000000000000000000000000000000000000000000000000000006020820152610c6c565b8160005b811561393957600101600a82049150613925565b6060816040519080825280601f01601f191660200182016040528015613966576020820181803883390190505b5085935090507fffffffffffffffffffffffffffffffffffffffffffffffffffffffffffffffff82015b83156139ed57600a840660300160f81b828280600190039350815181106139b357fe5b60200101907effffffffffffffffffffffffffffffffffffffffffffffffffffffffffffff1916908160001a905350600a84049350613990565b50949350505050565b600061124683836145b9565b5490565b600061124683836145d1565b600061124683836146b5565b6000613616848473ffffffffffffffffffffffffffffffffffffffff85166146ff565b81546000908210613a9d576040517f08c379a00000000000000000000000000000000000000000000000000000000081526004018080602001828103825260228152602001806149916022913960400191505060405180910390fd5b826000018281548110613aac57fe5b9060005260206000200154905092915050565b600054610100900460ff1680613ad85750613ad86134a1565b80613ae6575060005460ff16155b613b3b576040517f08c379a000000000000000000000000000000000000000000000000000000000815260040180806020018281038252602e815260200180614bec602e913960400191505060405180910390fd5b600054610100900460ff16158015613ba157600080547fffffffffffffffffffffffffffffffffffffffffffffffffffffffffffffff007fffffffffffffffffffffffffffffffffffffffffffffffffffffffffffff00ff909116610100171660011790555b8015610e8d57600080547fffffffffffffffffffffffffffffffffffffffffffffffffffffffffffff00ff16905550565b600054610100900460ff1680613beb5750613beb6134a1565b80613bf9575060005460ff16155b613c4e576040517f08c379a000000000000000000000000000000000000000000000000000000000815260040180806020018281038252602e815260200180614bec602e913960400191505060405180910390fd5b600054610100900460ff16158015613cb457600080547fffffffffffffffffffffffffffffffffffffffffffffffffffffffffffffff007fffffffffffffffffffffffffffffffffffffffffffffffffffffffffffff00ff909116610100171660011790555b613ba17f01ffc9a700000000000000000000000000000000000000000000000000000000614796565b600054610100900460ff1680613cf65750613cf66134a1565b80613d04575060005460ff16155b613d59576040517f08c379a000000000000000000000000000000000000000000000000000000000815260040180806020018281038252602e815260200180614bec602e913960400191505060405180910390fd5b600054610100900460ff16158015613dbf57600080547fffffffffffffffffffffffffffffffffffffffffffffffffffffffffffffff007fffffffffffffffffffffffffffffffffffffffffffffffffffffffffffff00ff909116610100171660011790555b8251613dd29060ce9060208601906148bb565b508151613de69060cf9060208501906148bb565b50613e107f80ac58cd00000000000000000000000000000000000000000000000000000000614796565b613e397f5b5e139f00000000000000000000000000000000000000000000000000000000614796565b6135ba7f780e9d6300000000000000000000000000000000000000000000000000000000614796565b815460009081908310613ec0576040517f08c379a0000000000000000000000000000000000000000000000000000000008152600401808060200182810382526022815260200180614b516022913960400191505060405180910390fd5b6000846000018481548110613ed157fe5b906000526020600020906002020190508060000154816001015492509250509250929050565b60008281526001840160205260408120548281613fac576040517f08c379a00000000000000000000000000000000000000000000000000000000081526004018080602001828103825283818151815260200191508051906020019080838360005b83811015613f71578181015183820152602001613f59565b50505050905090810190601f168015613f9e5780820380516001836020036101000a031916815260200191505b509250505060405180910390fd5b50846000016001820381548110613fbf57fe5b9060005260206000209060020201600101549150509392505050565b73ffffffffffffffffffffffffffffffffffffffff821661405d57604080517f08c379a000000000000000000000000000000000000000000000000000000000815260206004820181905260248201527f4552433732313a206d696e7420746f20746865207a65726f2061646472657373604482015290519081900360640190fd5b614066816130f4565b156140d257604080517f08c379a000000000000000000000000000000000000000000000000000000000815260206004820152601c60248201527f4552433732313a20746f6b656e20616c7265616479206d696e74656400000000604482015290519081900360640190fd5b6140de60008383610fce565b73ffffffffffffffffffffffffffffffffffffffff8216600090815260c960205260409020614113908263ffffffff613a1216565b5061412660ca828463ffffffff613a1e16565b50604051819073ffffffffffffffffffffffffffffffffffffffff8416906000907fddf252ad1be2c89b69c2b068fc378daa952ba7f163c4a11628f55a4df523b3ef908290a45050565b60006141918473ffffffffffffffffffffffffffffffffffffffff16614882565b61419d575060016132a0565b6000606073ffffffffffffffffffffffffffffffffffffffff86167f150b7a02000000000000000000000000000000000000000000000000000000006141e1613107565b898888604051602401808573ffffffffffffffffffffffffffffffffffffffff1673ffffffffffffffffffffffffffffffffffffffff1681526020018473ffffffffffffffffffffffffffffffffffffffff1673ffffffffffffffffffffffffffffffffffffffff16815260200183815260200180602001828103825283818151815260200191508051906020019080838360005b8381101561428e578181015183820152602001614276565b50505050905090810190601f1680156142bb5780820380516001836020036101000a031916815260200191505b50604080517fffffffffffffffffffffffffffffffffffffffffffffffffffffffffffffffe08184030181529181526020820180517bffffffffffffffffffffffffffffffffffffffffffffffffffffffff167fffffffff00000000000000000000000000000000000000000000000000000000909a16999099178952518151919890975087965094509250829150849050835b6020831061438c57805182527fffffffffffffffffffffffffffffffffffffffffffffffffffffffffffffffe0909201916020918201910161434f565b6001836020036101000a0380198251168184511680821785525050505050509050019150506000604051808303816000865af19150503d80600081146143ee576040519150601f19603f3d011682016040523d82523d6000602084013e6143f3565b606091505b50915091508161445e5780511561440d5780518082602001fd5b6040517f08c379a00000000000000000000000000000000000000000000000000000000081526004018080602001828103825260328152602001806149b36032913960400191505060405180910390fd5b600081806020019051602081101561447557600080fd5b50517fffffffff00000000000000000000000000000000000000000000000000000000167f150b7a02000000000000000000000000000000000000000000000000000000001493506132a092505050565b6000818361452f576040517f08c379a0000000000000000000000000000000000000000000000000000000008152602060048201818152835160248401528351909283926044909101919085019080838360008315613f71578181015183820152602001613f59565b50600083858161453b57fe5b0495945050505050565b600081848411156145b1576040517f08c379a0000000000000000000000000000000000000000000000000000000008152602060048201818152835160248401528351909283926044909101919085019080838360008315613f71578181015183820152602001613f59565b505050900390565b60009081526001919091016020526040902054151590565b600081815260018301602052604081205480156146ab5783547fffffffffffffffffffffffffffffffffffffffffffffffffffffffffffffffff808301919081019060009087908390811061462257fe5b906000526020600020015490508087600001848154811061463f57fe5b60009182526020808320909101929092558281526001898101909252604090209084019055865487908061466f57fe5b60019003818190600052602060002001600090559055866001016000878152602001908152602001600020600090556001945050505050611249565b6000915050611249565b60006146c183836145b9565b6146f757508154600181810184556000848152602080822090930184905584548482528286019093526040902091909155611249565b506000611249565b600082815260018401602052604081205480614764575050604080518082018252838152602080820184815286546001818101895560008981528481209551600290930290950191825591519082015586548684528188019092529290912055613619565b8285600001600183038154811061477757fe5b9060005260206000209060020201600101819055506000915050613619565b7fffffffff00000000000000000000000000000000000000000000000000000000808216141561482757604080517f08c379a000000000000000000000000000000000000000000000000000000000815260206004820152601c60248201527f4552433136353a20696e76616c696420696e7465726661636520696400000000604482015290519081900360640190fd5b7fffffffff0000000000000000000000000000000000000000000000000000000016600090815260976020526040902080547fffffffffffffffffffffffffffffffffffffffffffffffffffffffffffffff00166001179055565b6000813f7fc5d2460186f7233c927e7db2dcc703c0e500b653ca82273b7bfad8045d85a4708181148015906132a0575050151592915050565b828054600181600116156101000203166002900490600052602060002090601f016020900481019282601f106148fc57805160ff1916838001178555614929565b82800160010185558215614929579182015b8281111561492957825182559160200191906001019061490e565b50614935929150614939565b5090565b610d2391905b80821115614935576000815560010161493f56fe596f75206861766520746f20617070726f76652074686520726571756972656420746f6b656e20616d6f756e74206f662059545820746f207374616b65456e756d657261626c655365743a20696e646578206f7574206f6620626f756e64734552433732313a207472616e7366657220746f206e6f6e20455243373231526563656976657220696d706c656d656e746572596f75206861766520746f20617070726f76652074686520726571756972656420746f6b656e20616d6f756e74206f662059465320746f207374616b654f776e61626c653a206e6577206f776e657220697320746865207a65726f20616464726573734552433732313a207472616e7366657220746f20746865207a65726f20616464726573734552433732313a206f70657261746f7220717565727920666f72206e6f6e6578697374656e7420746f6b656e4552433732313a20617070726f76652063616c6c6572206973206e6f74206f776e6572206e6f7220617070726f76656420666f7220616c6c4552433732313a2062616c616e636520717565727920666f7220746865207a65726f20616464726573734552433732313a206f776e657220717565727920666f72206e6f6e6578697374656e7420746f6b656e596f752063616e277420756e7374616b65206d6f7265207468616e20796f75722063757272656e74207374616b65456e756d657261626c654d61703a20696e646578206f7574206f6620626f756e6473536166654d6174683a206d756c7469706c69636174696f6e206f766572666c6f774552433732313a20617070726f76656420717565727920666f72206e6f6e6578697374656e7420746f6b656e4552433732314d657461646174613a2055524920736574206f66206e6f6e6578697374656e7420746f6b656e436f6e747261637420696e7374616e63652068617320616c7265616479206265656e20696e697469616c697a65644552433732313a207472616e73666572206f6620746f6b656e2074686174206973206e6f74206f776e4552433732314d657461646174613a2055524920717565727920666f72206e6f6e6578697374656e7420746f6b656e4552433732313a20617070726f76616c20746f2063757272656e74206f776e65724552433732313a207472616e736665722063616c6c6572206973206e6f74206f776e6572206e6f7220617070726f766564596f75206861766520746f20617070726f76652074686520726571756972656420746f6b656e20616d6f756e7420746f207374616b6554686520746f74616c20616d6f756e74206f6620746f6b656e7320666f722074686973205552492068617665206265656e206d696e74656420616c7265616479a2646970667358221220681d415344f1eea84f7b0e19df12c2b08b147874737e8c77a73d178f00318c2164736f6c63430006020033",
  "source": "pragma solidity =0.6.2;\n\nimport '@openzeppelin/contracts-ethereum-package/contracts/access/Ownable.sol';\nimport '@openzeppelin/contracts-ethereum-package/contracts/token/ERC20/IERC20.sol';\nimport '@openzeppelin/contracts-ethereum-package/contracts/token/ERC721/ERC721.sol';\nimport '@openzeppelin/contracts-ethereum-package/contracts/token/ERC721/IERC721Metadata.sol';\nimport '@openzeppelin/contracts-ethereum-package/contracts/math/SafeMath.sol';\n\ninterface IYFS {\n    function mint(address _to, uint256 _amount) external;\n    function burn(address _to, uint256 _amount) external;\n}\n\n// TODO Be able to break NFTs into their YTX tokens\ncontract NFTManager is Initializable, OwnableUpgradeSafe, ERC721UpgradeSafe {\n    using SafeMath for uint256;\n\n    struct Blueprint {\n        string tokenURI;\n        uint256 mintMax;\n        uint256 currentMint; // How many tokens of this type have been minted already\n        uint256 ytxCost;\n        uint256 yfsCost;\n    }\n    \n    // Time staked in blocks\n    mapping (address => uint256) public timeStaked;\n    mapping (address => uint256) public amountStaked;\n    mapping (string => Blueprint) public blueprints;\n    uint256 public lastId;\n    address public ytx;\n    address public yfs;\n    uint256 public oneDayInBlocks;\n\n    function initialize(address _ytx, address _yfs, string memory baseUri_) public initializer {\n        ytx = _ytx;\n        yfs = _yfs;\n        oneDayInBlocks = 6500;\n        _setBaseURI(baseUri_);\n        __ERC721_init('NFTManager', 'YTXNFT');\n    }\n\n    function setYTX(address _ytx) public onlyOwner {\n        ytx = _ytx;\n    }\n\n    function setYFS(address _yfs) public onlyOwner {\n        yfs = _yfs;\n    }\n\n    function setBaseURI(string memory baseURI_) public onlyOwner {\n        _setBaseURI(baseURI_);\n    }\n\n    // Stacking YTX RESETS the staking time\n    function stakeYTX(uint256 _amount) public {\n        // Check allowance\n        uint256 allowance = IERC20(ytx).allowance(msg.sender, address(this));\n        require(allowance >= _amount, 'You have to approve the required token amount to stake');\n        IERC20(ytx).transferFrom(msg.sender, address(this), _amount);\n        timeStaked[msg.sender] = block.number;\n        amountStaked[msg.sender] = amountStaked[msg.sender].add(_amount);\n    }\n\n    // Unstake YTX tokens and receive YFS tokens tradable for NFTs\n    function unstakeYTXAndReceiveYFS(uint256 _amount) public {\n        require(_amount < amountStaked[msg.sender], \"You can't unstake more than your current stake\");\n        uint256 yfsGenerated = amountStaked[msg.sender].mul(timeStaked[msg.sender]).div(oneDayInBlocks);\n        timeStaked[msg.sender] = block.number;\n        amountStaked[msg.sender] = amountStaked[msg.sender].sub(_amount);\n        IYFS(yfs).mint(msg.sender, yfsGenerated);\n        IERC20(ytx).transfer(msg.sender, _amount);\n    }\n\n    // Allows the owner to create a blueprint which is how many card can be minted for a particular tokenURI\n    // NOTE: Remember to deploy the json file to the right URI with the baseURI\n    function createBlueprint(string memory _tokenURI, uint256 _maxMint, uint256 _ytxCost, uint256 _yfsCost) public onlyOwner {\n        blueprints[_tokenURI] = Blueprint(_tokenURI, _maxMint, 0, _ytxCost, _yfsCost);\n    }\n\n    // Mint a card for the sender\n    // NOTE: remember that the tokenURI most not have the baseURI. For instance:\n    // - BaseURI is https://examplenft.com/\n    // - TokenURI must be \"token-1\" or whatever without the BaseURI\n    // To create the resulting https://exampleNFT\n    function safeMint(string memory _tokenURI) public {\n        string memory emptyString = \"\";\n        // Check that this tokenURI exists\n        require(keccak256(bytes(blueprints[_tokenURI].tokenURI)) == keccak256(bytes(emptyString)) , \"That token URI doesn't exist\");\n        // Require than the amount of tokens to mint is not exceeded\n        require(blueprints[_tokenURI].mintMax > blueprints[_tokenURI].currentMint, 'The total amount of tokens for this URI have been minted already');\n        uint256 allowanceYTX = IERC20(ytx).allowance(msg.sender, address(this));\n        uint256 allowanceYFS = IERC20(yfs).allowance(msg.sender, address(this));\n        require(allowanceYTX >= blueprints[_tokenURI].ytxCost, 'You have to approve the required token amount of YTX to stake');\n        require(allowanceYFS >= blueprints[_tokenURI].yfsCost, 'You have to approve the required token amount of YFS to stake');\n        // Payment\n        IERC20(ytx).transferFrom(msg.sender, address(this), blueprints[_tokenURI].ytxCost);\n        IERC20(yfs).transferFrom(msg.sender, address(this), blueprints[_tokenURI].yfsCost);\n\n        blueprints[_tokenURI].currentMint++;\n        lastId++;\n        _safeMint(msg.sender, lastId, \"\");\n        // The token URI determines which NFT this is\n        _setTokenURI(lastId, _tokenURI);\n    }\n\n    function extractTokensIfStuck(address _token, uint256 _amount) public onlyOwner {\n        IERC20(_token).transfer(owner(), _amount);\n    }\n\n    function extractETHIfStruck() public onlyOwner {\n        payable(address(owner())).transfer(address(this).balance);\n    }\n}",
  "sourcePath": "/Users/merunas/Desktop/ytx/ytx-contracts/contracts/NFTManager.sol",
  "compiler": {
    "name": "solc",
    "version": "0.6.2+commit.bacdbe57.Emscripten.clang"
  },
  "schemaVersion": "3.3.2",
  "updatedAt": "2020-12-02T22:34:39.298Z",
  "devdoc": {
    "methods": {
      "approve(address,uint256)": {
        "details": "Approves another address to transfer the given token ID The zero address indicates there is no approved address. There can only be one approved address per token at a given time. Can only be called by the token owner or an approved operator.",
        "params": {
          "to": "address to be approved for the given token ID",
          "tokenId": "uint256 ID of the token to be approved"
        }
      },
      "balanceOf(address)": {
        "details": "Gets the balance of the specified address.",
        "params": {
          "owner": "address to query the balance of"
        },
        "returns": {
          "_0": "uint256 representing the amount owned by the passed address"
        }
      },
      "baseURI()": {
        "details": "Returns the base URI set via {_setBaseURI}. This will be automatically added as a prefix in {tokenURI} to each token's URI, or to the token ID if no specific URI is set for that token ID."
      },
      "getApproved(uint256)": {
        "details": "Gets the approved address for a token ID, or zero if no address set Reverts if the token ID does not exist.",
        "params": {
          "tokenId": "uint256 ID of the token to query the approval of"
        },
        "returns": {
          "_0": "address currently approved for the given token ID"
        }
      },
      "isApprovedForAll(address,address)": {
        "details": "Tells whether an operator is approved by a given owner.",
        "params": {
          "operator": "operator address which you want to query the approval of",
          "owner": "owner address which you want to query the approval of"
        },
        "returns": {
          "_0": "bool whether the given operator is approved by the given owner"
        }
      },
      "name()": {
        "details": "Gets the token name.",
        "returns": {
          "_0": "string representing the token name"
        }
      },
      "owner()": {
        "details": "Returns the address of the current owner."
      },
      "ownerOf(uint256)": {
        "details": "Gets the owner of the specified token ID.",
        "params": {
          "tokenId": "uint256 ID of the token to query the owner of"
        },
        "returns": {
          "_0": "address currently marked as the owner of the given token ID"
        }
      },
      "renounceOwnership()": {
        "details": "Leaves the contract without owner. It will not be possible to call `onlyOwner` functions anymore. Can only be called by the current owner.     * NOTE: Renouncing ownership will leave the contract without an owner, thereby removing any functionality that is only available to the owner."
      },
      "safeTransferFrom(address,address,uint256)": {
        "details": "Safely transfers the ownership of a given token ID to another address If the target address is a contract, it must implement {IERC721Receiver-onERC721Received}, which is called upon a safe transfer, and return the magic value `bytes4(keccak256(\"onERC721Received(address,address,uint256,bytes)\"))`; otherwise, the transfer is reverted. Requires the msg.sender to be the owner, approved, or operator",
        "params": {
          "from": "current owner of the token",
          "to": "address to receive the ownership of the given token ID",
          "tokenId": "uint256 ID of the token to be transferred"
        }
      },
      "safeTransferFrom(address,address,uint256,bytes)": {
        "details": "Safely transfers the ownership of a given token ID to another address If the target address is a contract, it must implement {IERC721Receiver-onERC721Received}, which is called upon a safe transfer, and return the magic value `bytes4(keccak256(\"onERC721Received(address,address,uint256,bytes)\"))`; otherwise, the transfer is reverted. Requires the _msgSender() to be the owner, approved, or operator",
        "params": {
          "_data": "bytes data to send along with a safe transfer check",
          "from": "current owner of the token",
          "to": "address to receive the ownership of the given token ID",
          "tokenId": "uint256 ID of the token to be transferred"
        }
      },
      "setApprovalForAll(address,bool)": {
        "details": "Sets or unsets the approval of a given operator An operator is allowed to transfer all tokens of the sender on their behalf.",
        "params": {
          "approved": "representing the status of the approval to be set",
          "operator": "operator address to set the approval"
        }
      },
      "supportsInterface(bytes4)": {
        "details": "See {IERC165-supportsInterface}.     * Time complexity O(1), guaranteed to always use less than 30 000 gas."
      },
      "symbol()": {
        "details": "Gets the token symbol.",
        "returns": {
          "_0": "string representing the token symbol"
        }
      },
      "tokenByIndex(uint256)": {
        "details": "Gets the token ID at a given index of all the tokens in this contract Reverts if the index is greater or equal to the total number of tokens.",
        "params": {
          "index": "uint256 representing the index to be accessed of the tokens list"
        },
        "returns": {
          "_0": "uint256 token ID at the given index of the tokens list"
        }
      },
      "tokenOfOwnerByIndex(address,uint256)": {
        "details": "Gets the token ID at a given index of the tokens list of the requested owner.",
        "params": {
          "index": "uint256 representing the index to be accessed of the requested tokens list",
          "owner": "address owning the tokens list to be accessed"
        },
        "returns": {
          "_0": "uint256 token ID at the given index of the tokens list owned by the requested address"
        }
      },
      "tokenURI(uint256)": {
        "details": "Returns the URI for a given token ID. May return an empty string.     * If a base URI is set (via {_setBaseURI}), it is added as a prefix to the token's own URI (via {_setTokenURI}).     * If there is a base URI but no token URI, the token's ID will be used as its URI when appending it to the base URI. This pattern for autogenerated token URIs can lead to large gas savings.     * .Examples |=== |`_setBaseURI()` |`_setTokenURI()` |`tokenURI()` | \"\" | \"\" | \"\" | \"\" | \"token.uri/123\" | \"token.uri/123\" | \"token.uri/\" | \"123\" | \"token.uri/123\" | \"token.uri/\" | \"\" | \"token.uri/<tokenId>\" |===     * Requirements:     * - `tokenId` must exist."
      },
      "totalSupply()": {
        "details": "Gets the total amount of tokens stored by the contract.",
        "returns": {
          "_0": "uint256 representing the total amount of tokens"
        }
      },
      "transferFrom(address,address,uint256)": {
        "details": "Transfers the ownership of a given token ID to another address. Usage of this method is discouraged, use {safeTransferFrom} whenever possible. Requires the msg.sender to be the owner, approved, or operator.",
        "params": {
          "from": "current owner of the token",
          "to": "address to receive the ownership of the given token ID",
          "tokenId": "uint256 ID of the token to be transferred"
        }
      },
      "transferOwnership(address)": {
        "details": "Transfers ownership of the contract to a new account (`newOwner`). Can only be called by the current owner."
      }
    }
  },
  "userdoc": {
    "methods": {}
  }
}