{
  "contractName": "Ownable",
  "abi": [
    {
      "inputs": [
        {
          "internalType": "address",
          "name": "",
          "type": "address"
        }
      ],
      "name": "approved",
      "outputs": [
        {
          "internalType": "bool",
          "name": "",
          "type": "bool"
        }
      ],
      "stateMutability": "view",
      "type": "function"
    },
    {
      "inputs": [],
      "name": "owner",
      "outputs": [
        {
          "internalType": "address payable",
          "name": "",
          "type": "address"
        }
      ],
      "stateMutability": "view",
      "type": "function"
    },
    {
      "inputs": [
        {
          "internalType": "address",
          "name": "_to",
          "type": "address"
        }
      ],
      "name": "addApproved",
      "outputs": [],
      "stateMutability": "nonpayable",
      "type": "function"
    },
    {
      "inputs": [
        {
          "internalType": "address",
          "name": "_to",
          "type": "address"
        }
      ],
      "name": "removeApproved",
      "outputs": [],
      "stateMutability": "nonpayable",
      "type": "function"
    }
  ],
  "bytecode": "0x608060405234801561001057600080fd5b5061027e806100206000396000f3fe608060405234801561001057600080fd5b506004361061004c5760003560e01c80634fd7cdfd146100515780638da5cb5b14610086578063a356d21e146100b7578063d8b964e6146100ea575b600080fd5b6100846004803603602081101561006757600080fd5b503573ffffffffffffffffffffffffffffffffffffffff16610131565b005b61008e6101a7565b6040805173ffffffffffffffffffffffffffffffffffffffff9092168252519081900360200190f35b610084600480360360208110156100cd57600080fd5b503573ffffffffffffffffffffffffffffffffffffffff166101c3565b61011d6004803603602081101561010057600080fd5b503573ffffffffffffffffffffffffffffffffffffffff16610233565b604080519115158252519081900360200190f35b60005473ffffffffffffffffffffffffffffffffffffffff16331461015557600080fd5b73ffffffffffffffffffffffffffffffffffffffff16600090815260016020819052604090912080547fffffffffffffffffffffffffffffffffffffffffffffffffffffffffffffff00169091179055565b60005473ffffffffffffffffffffffffffffffffffffffff1681565b60005473ffffffffffffffffffffffffffffffffffffffff1633146101e757600080fd5b73ffffffffffffffffffffffffffffffffffffffff16600090815260016020526040902080547fffffffffffffffffffffffffffffffffffffffffffffffffffffffffffffff00169055565b60016020526000908152604090205460ff168156fea2646970667358221220446513dc245b9624fc89fe8f0cac683a4bddebe088b68a5e39dc86bc4b10c2c164736f6c63430006000033",
  "source": "pragma solidity =0.6.0;\n\nimport '@openzeppelin/contracts-ethereum-package/contracts/token/ERC20/IERC20.sol';\n\ncontract Ownable {\n    address payable public owner;\n    mapping(address => bool) public approved;\n\n    modifier onlyOwner {\n        require(msg.sender == owner);\n        _;\n    }\n\n    modifier onlyApproved {\n        require(msg.sender == owner || approved[msg.sender]);\n        _;\n    }\n\n    function addApproved(address _to) public onlyOwner {\n        approved[_to] = true;\n    }\n\n    function removeApproved(address _to) public onlyOwner {\n        approved[_to] = false;\n    }\n}\n\ncontract DistributeEarnings is Ownable {\n    function init() public {\n        require(owner == address(0));\n        owner = msg.sender;\n        addApproved(msg.sender);\n    }\n\n    function transferTokens(address _token, address _to, uint256 _amount) public onlyApproved {\n        IERC20(_token).transfer(_to, _amount);\n    }\n\n    function extractETHIfStuck() public onlyOwner {\n        owner.transfer(address(this).balance);\n    }\n\n    function extractTokensIfStuck(address _token, uint256 _amount) public onlyOwner {\n        IERC20(_token).transfer(owner, _amount);\n    }\n}",
  "sourcePath": "/Users/merunas/Desktop/projects/ytx-contracts/contracts/DistributeEarnings.sol",
  "compiler": {
    "name": "solc",
    "version": "0.6.0+commit.26b70077.Emscripten.clang"
  },
  "schemaVersion": "3.3.2",
  "updatedAt": "2020-11-07T20:42:39.022Z",
  "devdoc": {
    "methods": {}
  },
  "userdoc": {
    "methods": {}
  }
}