{
  "contractName": "YFS",
  "abi": [
    {
      "anonymous": false,
      "inputs": [
        {
          "indexed": true,
          "internalType": "address",
          "name": "owner",
          "type": "address"
        },
        {
          "indexed": true,
          "internalType": "address",
          "name": "spender",
          "type": "address"
        },
        {
          "indexed": false,
          "internalType": "uint256",
          "name": "value",
          "type": "uint256"
        }
      ],
      "name": "Approval",
      "type": "event"
    },
    {
      "anonymous": false,
      "inputs": [
        {
          "indexed": true,
          "internalType": "address",
          "name": "previousOwner",
          "type": "address"
        },
        {
          "indexed": true,
          "internalType": "address",
          "name": "newOwner",
          "type": "address"
        }
      ],
      "name": "OwnershipTransferred",
      "type": "event"
    },
    {
      "anonymous": false,
      "inputs": [
        {
          "indexed": true,
          "internalType": "address",
          "name": "from",
          "type": "address"
        },
        {
          "indexed": true,
          "internalType": "address",
          "name": "to",
          "type": "address"
        },
        {
          "indexed": false,
          "internalType": "uint256",
          "name": "value",
          "type": "uint256"
        }
      ],
      "name": "Transfer",
      "type": "event"
    },
    {
      "inputs": [
        {
          "internalType": "address",
          "name": "owner",
          "type": "address"
        },
        {
          "internalType": "address",
          "name": "spender",
          "type": "address"
        }
      ],
      "name": "allowance",
      "outputs": [
        {
          "internalType": "uint256",
          "name": "",
          "type": "uint256"
        }
      ],
      "stateMutability": "view",
      "type": "function"
    },
    {
      "inputs": [
        {
          "internalType": "address",
          "name": "spender",
          "type": "address"
        },
        {
          "internalType": "uint256",
          "name": "amount",
          "type": "uint256"
        }
      ],
      "name": "approve",
      "outputs": [
        {
          "internalType": "bool",
          "name": "",
          "type": "bool"
        }
      ],
      "stateMutability": "nonpayable",
      "type": "function"
    },
    {
      "inputs": [
        {
          "internalType": "address",
          "name": "account",
          "type": "address"
        }
      ],
      "name": "balanceOf",
      "outputs": [
        {
          "internalType": "uint256",
          "name": "",
          "type": "uint256"
        }
      ],
      "stateMutability": "view",
      "type": "function"
    },
    {
      "inputs": [],
      "name": "decimals",
      "outputs": [
        {
          "internalType": "uint8",
          "name": "",
          "type": "uint8"
        }
      ],
      "stateMutability": "view",
      "type": "function"
    },
    {
      "inputs": [
        {
          "internalType": "address",
          "name": "spender",
          "type": "address"
        },
        {
          "internalType": "uint256",
          "name": "subtractedValue",
          "type": "uint256"
        }
      ],
      "name": "decreaseAllowance",
      "outputs": [
        {
          "internalType": "bool",
          "name": "",
          "type": "bool"
        }
      ],
      "stateMutability": "nonpayable",
      "type": "function"
    },
    {
      "inputs": [
        {
          "internalType": "address",
          "name": "spender",
          "type": "address"
        },
        {
          "internalType": "uint256",
          "name": "addedValue",
          "type": "uint256"
        }
      ],
      "name": "increaseAllowance",
      "outputs": [
        {
          "internalType": "bool",
          "name": "",
          "type": "bool"
        }
      ],
      "stateMutability": "nonpayable",
      "type": "function"
    },
    {
      "inputs": [
        {
          "internalType": "address",
          "name": "",
          "type": "address"
        }
      ],
      "name": "isFrozen",
      "outputs": [
        {
          "internalType": "bool",
          "name": "",
          "type": "bool"
        }
      ],
      "stateMutability": "view",
      "type": "function"
    },
    {
      "inputs": [],
      "name": "name",
      "outputs": [
        {
          "internalType": "string",
          "name": "",
          "type": "string"
        }
      ],
      "stateMutability": "view",
      "type": "function"
    },
    {
      "inputs": [],
      "name": "nftManager",
      "outputs": [
        {
          "internalType": "address",
          "name": "",
          "type": "address"
        }
      ],
      "stateMutability": "view",
      "type": "function"
    },
    {
      "inputs": [],
      "name": "owner",
      "outputs": [
        {
          "internalType": "address",
          "name": "",
          "type": "address"
        }
      ],
      "stateMutability": "view",
      "type": "function"
    },
    {
      "inputs": [],
      "name": "renounceOwnership",
      "outputs": [],
      "stateMutability": "nonpayable",
      "type": "function"
    },
    {
      "inputs": [],
      "name": "symbol",
      "outputs": [
        {
          "internalType": "string",
          "name": "",
          "type": "string"
        }
      ],
      "stateMutability": "view",
      "type": "function"
    },
    {
      "inputs": [],
      "name": "totalSupply",
      "outputs": [
        {
          "internalType": "uint256",
          "name": "",
          "type": "uint256"
        }
      ],
      "stateMutability": "view",
      "type": "function"
    },
    {
      "inputs": [
        {
          "internalType": "address",
          "name": "sender",
          "type": "address"
        },
        {
          "internalType": "address",
          "name": "recipient",
          "type": "address"
        },
        {
          "internalType": "uint256",
          "name": "amount",
          "type": "uint256"
        }
      ],
      "name": "transferFrom",
      "outputs": [
        {
          "internalType": "bool",
          "name": "",
          "type": "bool"
        }
      ],
      "stateMutability": "nonpayable",
      "type": "function"
    },
    {
      "inputs": [
        {
          "internalType": "address",
          "name": "newOwner",
          "type": "address"
        }
      ],
      "name": "transferOwnership",
      "outputs": [],
      "stateMutability": "nonpayable",
      "type": "function"
    },
    {
      "inputs": [
        {
          "internalType": "address",
          "name": "_nftManager",
          "type": "address"
        }
      ],
      "name": "initialize",
      "outputs": [],
      "stateMutability": "nonpayable",
      "type": "function"
    },
    {
      "inputs": [
        {
          "internalType": "address",
          "name": "_nftManager",
          "type": "address"
        }
      ],
      "name": "setManager",
      "outputs": [],
      "stateMutability": "nonpayable",
      "type": "function"
    },
    {
      "inputs": [
        {
          "internalType": "address",
          "name": "_to",
          "type": "address"
        },
        {
          "internalType": "uint256",
          "name": "_amount",
          "type": "uint256"
        }
      ],
      "name": "mint",
      "outputs": [],
      "stateMutability": "nonpayable",
      "type": "function"
    },
    {
      "inputs": [
        {
          "internalType": "address",
          "name": "_account",
          "type": "address"
        },
        {
          "internalType": "uint256",
          "name": "_amount",
          "type": "uint256"
        }
      ],
      "name": "burn",
      "outputs": [],
      "stateMutability": "nonpayable",
      "type": "function"
    },
    {
      "inputs": [
        {
          "internalType": "address",
          "name": "recipient",
          "type": "address"
        },
        {
          "internalType": "uint256",
          "name": "amount",
          "type": "uint256"
        }
      ],
      "name": "transfer",
      "outputs": [
        {
          "internalType": "bool",
          "name": "",
          "type": "bool"
        }
      ],
      "stateMutability": "nonpayable",
      "type": "function"
    },
    {
      "inputs": [],
      "name": "extractETHIfStuck",
      "outputs": [],
      "stateMutability": "nonpayable",
      "type": "function"
    },
    {
      "inputs": [
        {
          "internalType": "address",
          "name": "_token",
          "type": "address"
        },
        {
          "internalType": "uint256",
          "name": "_amount",
          "type": "uint256"
        }
      ],
      "name": "extractTokenIfStuck",
      "outputs": [],
      "stateMutability": "nonpayable",
      "type": "function"
    },
    {
      "inputs": [
        {
          "internalType": "address",
          "name": "_of",
          "type": "address"
        }
      ],
      "name": "freezeTokens",
      "outputs": [],
      "stateMutability": "nonpayable",
      "type": "function"
    },
    {
      "inputs": [
        {
          "internalType": "address",
          "name": "_of",
          "type": "address"
        }
      ],
      "name": "unFreezeTokens",
      "outputs": [],
      "stateMutability": "nonpayable",
      "type": "function"
    }
  ],
  "bytecode": "0x608060405234801561001057600080fd5b50611ee9806100206000396000f3fe608060405234801561001057600080fd5b50600436106101985760003560e01c8063715018a6116100e3578063c4d66de81161008c578063e583983611610066578063e5839836146105bd578063e88b91ea146105f0578063f2fde38b146105f857610198565b8063c4d66de81461051c578063d0ebdbe71461054f578063dd62ed3e1461058257610198565b80639dc29fac116100bd5780639dc29fac14610471578063a457c2d7146104aa578063a9059cbb146104e357610198565b8063715018a6146104305780638da5cb5b1461043857806395d89b411461046957610198565b806339509351116101455780635471191d1161011f5780635471191d146103975780635607f408146103ca57806370a08231146103fd57610198565b8063395093511461031d57806340c10f19146103565780634fe411291461038f57610198565b806318160ddd1161017657806318160ddd146102a257806323b872dd146102bc578063313ce567146102ff57610198565b8063041be19a1461019d57806306fdde03146101d8578063095ea7b314610255575b600080fd5b6101d6600480360360408110156101b357600080fd5b5073ffffffffffffffffffffffffffffffffffffffff813516906020013561062b565b005b6101e061077a565b6040805160208082528351818301528351919283929083019185019080838360005b8381101561021a578181015183820152602001610202565b50505050905090810190601f1680156102475780820380516001836020036101000a031916815260200191505b509250505060405180910390f35b61028e6004803603604081101561026b57600080fd5b5073ffffffffffffffffffffffffffffffffffffffff813516906020013561082f565b604080519115158252519081900360200190f35b6102aa61084c565b60408051918252519081900360200190f35b61028e600480360360608110156102d257600080fd5b5073ffffffffffffffffffffffffffffffffffffffff813581169160208101359091169060400135610852565b6103076108f9565b6040805160ff9092168252519081900360200190f35b61028e6004803603604081101561033357600080fd5b5073ffffffffffffffffffffffffffffffffffffffff8135169060200135610902565b6101d66004803603604081101561036c57600080fd5b5073ffffffffffffffffffffffffffffffffffffffff8135169060200135610963565b6101d6610a1e565b6101d6600480360360208110156103ad57600080fd5b503573ffffffffffffffffffffffffffffffffffffffff16610aff565b6101d6600480360360208110156103e057600080fd5b503573ffffffffffffffffffffffffffffffffffffffff16610bdc565b6102aa6004803603602081101561041357600080fd5b503573ffffffffffffffffffffffffffffffffffffffff16610cbc565b6101d6610ce4565b610440610de4565b6040805173ffffffffffffffffffffffffffffffffffffffff9092168252519081900360200190f35b6101e0610e00565b6101d66004803603604081101561048757600080fd5b5073ffffffffffffffffffffffffffffffffffffffff8135169060200135610e7f565b61028e600480360360408110156104c057600080fd5b5073ffffffffffffffffffffffffffffffffffffffff8135169060200135610f36565b61028e600480360360408110156104f957600080fd5b5073ffffffffffffffffffffffffffffffffffffffff8135169060200135610fb1565b6101d66004803603602081101561053257600080fd5b503573ffffffffffffffffffffffffffffffffffffffff16611042565b6101d66004803603602081101561056557600080fd5b503573ffffffffffffffffffffffffffffffffffffffff1661124d565b6102aa6004803603604081101561059857600080fd5b5073ffffffffffffffffffffffffffffffffffffffff81358116916020013516611325565b61028e600480360360208110156105d357600080fd5b503573ffffffffffffffffffffffffffffffffffffffff1661135d565b610440611372565b6101d66004803603602081101561060e57600080fd5b503573ffffffffffffffffffffffffffffffffffffffff1661138e565b610633611519565b60655473ffffffffffffffffffffffffffffffffffffffff9081169116146106bc57604080517f08c379a000000000000000000000000000000000000000000000000000000000815260206004820181905260248201527f4f776e61626c653a2063616c6c6572206973206e6f7420746865206f776e6572604482015290519081900360640190fd5b8173ffffffffffffffffffffffffffffffffffffffff1663a9059cbb6106e0610de4565b836040518363ffffffff1660e01b8152600401808373ffffffffffffffffffffffffffffffffffffffff1673ffffffffffffffffffffffffffffffffffffffff16815260200182815260200192505050602060405180830381600087803b15801561074a57600080fd5b505af115801561075e573d6000803e3d6000fd5b505050506040513d602081101561077457600080fd5b50505050565b609a8054604080516020601f60027fffffffffffffffffffffffffffffffffffffffffffffffffffffffffffffffff6101006001881615020190951694909404938401819004810282018101909252828152606093909290918301828280156108245780601f106107f957610100808354040283529160200191610824565b820191906000526020600020905b81548152906001019060200180831161080757829003601f168201915b505050505090505b90565b600061084361083c611519565b848461151d565b50600192915050565b60995490565b600061085f848484611664565b6108ef8461086b611519565b6108ea85604051806060016040528060288152602001611dcf6028913973ffffffffffffffffffffffffffffffffffffffff8a166000908152609860205260408120906108b6611519565b73ffffffffffffffffffffffffffffffffffffffff168152602081019190915260400160002054919063ffffffff61184216565b61151d565b5060019392505050565b609c5460ff1690565b600061084361090f611519565b846108ea8560986000610920611519565b73ffffffffffffffffffffffffffffffffffffffff908116825260208083019390935260409182016000908120918c16815292529020549063ffffffff6118f316565b60d05473ffffffffffffffffffffffffffffffffffffffff163314806109bb575061098c610de4565b73ffffffffffffffffffffffffffffffffffffffff163373ffffffffffffffffffffffffffffffffffffffff16145b610a10576040517f08c379a0000000000000000000000000000000000000000000000000000000008152600401808060200182810382526033815260200180611d0c6033913960400191505060405180910390fd5b610a1a828261196e565b5050565b610a26611519565b60655473ffffffffffffffffffffffffffffffffffffffff908116911614610aaf57604080517f08c379a000000000000000000000000000000000000000000000000000000000815260206004820181905260248201527f4f776e61626c653a2063616c6c6572206973206e6f7420746865206f776e6572604482015290519081900360640190fd5b610ab7610de4565b73ffffffffffffffffffffffffffffffffffffffff166108fc479081150290604051600060405180830381858888f19350505050158015610afc573d6000803e3d6000fd5b50565b610b07611519565b60655473ffffffffffffffffffffffffffffffffffffffff908116911614610b9057604080517f08c379a000000000000000000000000000000000000000000000000000000000815260206004820181905260248201527f4f776e61626c653a2063616c6c6572206973206e6f7420746865206f776e6572604482015290519081900360640190fd5b73ffffffffffffffffffffffffffffffffffffffff16600090815260cf6020526040902080547fffffffffffffffffffffffffffffffffffffffffffffffffffffffffffffff00169055565b610be4611519565b60655473ffffffffffffffffffffffffffffffffffffffff908116911614610c6d57604080517f08c379a000000000000000000000000000000000000000000000000000000000815260206004820181905260248201527f4f776e61626c653a2063616c6c6572206973206e6f7420746865206f776e6572604482015290519081900360640190fd5b73ffffffffffffffffffffffffffffffffffffffff16600090815260cf6020526040902080547fffffffffffffffffffffffffffffffffffffffffffffffffffffffffffffff00166001179055565b73ffffffffffffffffffffffffffffffffffffffff1660009081526097602052604090205490565b610cec611519565b60655473ffffffffffffffffffffffffffffffffffffffff908116911614610d7557604080517f08c379a000000000000000000000000000000000000000000000000000000000815260206004820181905260248201527f4f776e61626c653a2063616c6c6572206973206e6f7420746865206f776e6572604482015290519081900360640190fd5b60655460405160009173ffffffffffffffffffffffffffffffffffffffff16907f8be0079c531659141344cd1fd0a4f28419497f9722a3daafe3b4186f6b6457e0908390a3606580547fffffffffffffffffffffffff0000000000000000000000000000000000000000169055565b60655473ffffffffffffffffffffffffffffffffffffffff1690565b609b8054604080516020601f60027fffffffffffffffffffffffffffffffffffffffffffffffffffffffffffffffff6101006001881615020190951694909404938401819004810282018101909252828152606093909290918301828280156108245780601f106107f957610100808354040283529160200191610824565b60d05473ffffffffffffffffffffffffffffffffffffffff16331480610ed75750610ea8610de4565b73ffffffffffffffffffffffffffffffffffffffff163373ffffffffffffffffffffffffffffffffffffffff16145b610f2c576040517f08c379a0000000000000000000000000000000000000000000000000000000008152600401808060200182810382526033815260200180611d0c6033913960400191505060405180910390fd5b610a1a8282611aad565b6000610843610f43611519565b846108ea85604051806060016040528060258152602001611e8f6025913960986000610f6d611519565b73ffffffffffffffffffffffffffffffffffffffff908116825260208083019390935260409182016000908120918d1681529252902054919063ffffffff61184216565b33600090815260cf602052604081205460ff161561103057604080517f08c379a000000000000000000000000000000000000000000000000000000000815260206004820152601960248201527f596f7572207472616e7366657273206172652066726f7a656e00000000000000604482015290519081900360640190fd5b61084361103b611519565b8484611664565b600054610100900460ff168061105b575061105b611c03565b80611069575060005460ff16155b6110be576040517f08c379a000000000000000000000000000000000000000000000000000000000815260040180806020018281038252602e815260200180611df7602e913960400191505060405180910390fd5b600054610100900460ff1615801561112457600080547fffffffffffffffffffffffffffffffffffffffffffffffffffffffffffffff007fffffffffffffffffffffffffffffffffffffffffffffffffffffffffffff00ff909116610100171660011790555b6040805180820190915260038082527f594653000000000000000000000000000000000000000000000000000000000060209092019182526111689160cc91611c50565b506040805180820190915260038082527f594653000000000000000000000000000000000000000000000000000000000060209092019182526111ad9160cd91611c50565b5060ce80547fffffffffffffffffffffffffffffffffffffffffffffffffffffffffffffff0016601217905560d0805473ffffffffffffffffffffffffffffffffffffffff84167fffffffffffffffffffffffff00000000000000000000000000000000000000009091161790558015610a1a57600080547fffffffffffffffffffffffffffffffffffffffffffffffffffffffffffff00ff1690555050565b611255611519565b60655473ffffffffffffffffffffffffffffffffffffffff9081169116146112de57604080517f08c379a000000000000000000000000000000000000000000000000000000000815260206004820181905260248201527f4f776e61626c653a2063616c6c6572206973206e6f7420746865206f776e6572604482015290519081900360640190fd5b60d080547fffffffffffffffffffffffff00000000000000000000000000000000000000001673ffffffffffffffffffffffffffffffffffffffff92909216919091179055565b73ffffffffffffffffffffffffffffffffffffffff918216600090815260986020908152604080832093909416825291909152205490565b60cf6020526000908152604090205460ff1681565b60d05473ffffffffffffffffffffffffffffffffffffffff1681565b611396611519565b60655473ffffffffffffffffffffffffffffffffffffffff90811691161461141f57604080517f08c379a000000000000000000000000000000000000000000000000000000000815260206004820181905260248201527f4f776e61626c653a2063616c6c6572206973206e6f7420746865206f776e6572604482015290519081900360640190fd5b73ffffffffffffffffffffffffffffffffffffffff811661148b576040517f08c379a0000000000000000000000000000000000000000000000000000000008152600401808060200182810382526026815260200180611d616026913960400191505060405180910390fd5b60655460405173ffffffffffffffffffffffffffffffffffffffff8084169216907f8be0079c531659141344cd1fd0a4f28419497f9722a3daafe3b4186f6b6457e090600090a3606580547fffffffffffffffffffffffff00000000000000000000000000000000000000001673ffffffffffffffffffffffffffffffffffffffff92909216919091179055565b3390565b73ffffffffffffffffffffffffffffffffffffffff8316611589576040517f08c379a0000000000000000000000000000000000000000000000000000000008152600401808060200182810382526024815260200180611e6b6024913960400191505060405180910390fd5b73ffffffffffffffffffffffffffffffffffffffff82166115f5576040517f08c379a0000000000000000000000000000000000000000000000000000000008152600401808060200182810382526022815260200180611d876022913960400191505060405180910390fd5b73ffffffffffffffffffffffffffffffffffffffff808416600081815260986020908152604080832094871680845294825291829020859055815185815291517f8c5be1e5ebec7d5bd14f71427d1e84f3dd0314c0f7b2291e5b200ac8c7c3b9259281900390910190a3505050565b73ffffffffffffffffffffffffffffffffffffffff83166116d0576040517f08c379a0000000000000000000000000000000000000000000000000000000008152600401808060200182810382526025815260200180611e466025913960400191505060405180910390fd5b73ffffffffffffffffffffffffffffffffffffffff821661173c576040517f08c379a0000000000000000000000000000000000000000000000000000000008152600401808060200182810382526023815260200180611ce96023913960400191505060405180910390fd5b611747838383611c09565b61179781604051806060016040528060268152602001611da96026913973ffffffffffffffffffffffffffffffffffffffff8616600090815260976020526040902054919063ffffffff61184216565b73ffffffffffffffffffffffffffffffffffffffff80851660009081526097602052604080822093909355908416815220546117d9908263ffffffff6118f316565b73ffffffffffffffffffffffffffffffffffffffff80841660008181526097602090815260409182902094909455805185815290519193928716927fddf252ad1be2c89b69c2b068fc378daa952ba7f163c4a11628f55a4df523b3ef92918290030190a3505050565b600081848411156118eb576040517f08c379a00000000000000000000000000000000000000000000000000000000081526004018080602001828103825283818151815260200191508051906020019080838360005b838110156118b0578181015183820152602001611898565b50505050905090810190601f1680156118dd5780820380516001836020036101000a031916815260200191505b509250505060405180910390fd5b505050900390565b60008282018381101561196757604080517f08c379a000000000000000000000000000000000000000000000000000000000815260206004820152601b60248201527f536166654d6174683a206164646974696f6e206f766572666c6f770000000000604482015290519081900360640190fd5b9392505050565b73ffffffffffffffffffffffffffffffffffffffff82166119f057604080517f08c379a000000000000000000000000000000000000000000000000000000000815260206004820152601f60248201527f45524332303a206d696e7420746f20746865207a65726f206164647265737300604482015290519081900360640190fd5b6119fc60008383611c09565b609954611a0f908263ffffffff6118f316565b60995573ffffffffffffffffffffffffffffffffffffffff8216600090815260976020526040902054611a48908263ffffffff6118f316565b73ffffffffffffffffffffffffffffffffffffffff831660008181526097602090815260408083209490945583518581529351929391927fddf252ad1be2c89b69c2b068fc378daa952ba7f163c4a11628f55a4df523b3ef9281900390910190a35050565b73ffffffffffffffffffffffffffffffffffffffff8216611b19576040517f08c379a0000000000000000000000000000000000000000000000000000000008152600401808060200182810382526021815260200180611e256021913960400191505060405180910390fd5b611b2582600083611c09565b611b7581604051806060016040528060228152602001611d3f6022913973ffffffffffffffffffffffffffffffffffffffff8516600090815260976020526040902054919063ffffffff61184216565b73ffffffffffffffffffffffffffffffffffffffff8316600090815260976020526040902055609954611bae908263ffffffff611c0e16565b60995560408051828152905160009173ffffffffffffffffffffffffffffffffffffffff8516917fddf252ad1be2c89b69c2b068fc378daa952ba7f163c4a11628f55a4df523b3ef9181900360200190a35050565b303b1590565b505050565b600061196783836040518060400160405280601e81526020017f536166654d6174683a207375627472616374696f6e206f766572666c6f770000815250611842565b828054600181600116156101000203166002900490600052602060002090601f016020900481019282601f10611c9157805160ff1916838001178555611cbe565b82800160010185558215611cbe579182015b82811115611cbe578251825591602001919060010190611ca3565b50611cca929150611cce565b5090565b61082c91905b80821115611cca5760008155600101611cd456fe45524332303a207472616e7366657220746f20746865207a65726f20616464726573734f6e6c792065786563757461626c6520627920746865204e46544d616e6167657220636f6e7472616374206f72206f776e657245524332303a206275726e20616d6f756e7420657863656564732062616c616e63654f776e61626c653a206e6577206f776e657220697320746865207a65726f206164647265737345524332303a20617070726f766520746f20746865207a65726f206164647265737345524332303a207472616e7366657220616d6f756e7420657863656564732062616c616e636545524332303a207472616e7366657220616d6f756e74206578636565647320616c6c6f77616e6365436f6e747261637420696e7374616e63652068617320616c7265616479206265656e20696e697469616c697a656445524332303a206275726e2066726f6d20746865207a65726f206164647265737345524332303a207472616e736665722066726f6d20746865207a65726f206164647265737345524332303a20617070726f76652066726f6d20746865207a65726f206164647265737345524332303a2064656372656173656420616c6c6f77616e63652062656c6f77207a65726fa2646970667358221220e495aab5fce9bf57a1a7158799788e61fa7b17f2e78aea3048228d39d04318e864736f6c63430006020033",
  "source": "pragma solidity =0.6.2;\n\nimport '@openzeppelin/contracts-ethereum-package/contracts/access/Ownable.sol';\nimport '@openzeppelin/contracts-ethereum-package/contracts/token/ERC20/ERC20.sol';\nimport '@openzeppelin/contracts-ethereum-package/contracts/Initializable.sol';\nimport '@openzeppelin/contracts-ethereum-package/contracts/math/SafeMath.sol';\n\ncontract YFS is Initializable, OwnableUpgradeSafe, ERC20UpgradeSafe {\n    using SafeMath for uint256;\n\n    mapping (address => uint256) private _balances;\n    mapping (address => mapping (address => uint256)) private _allowances;\n    uint256 private _totalSupply;\n    string private _name;\n    string private _symbol;\n    uint8 private _decimals;\n    mapping (address => bool) public isFrozen;\n    address public nftManager;\n\n    modifier onlyManager {\n        require(msg.sender == nftManager || msg.sender == owner(), 'Only executable by the NFTManager contract or owner');\n        _;\n    }\n    \n    function initialize(address _nftManager) public initializer {\n        _name = 'YFS';\n        _symbol = 'YFS';\n        _decimals = 18;\n        nftManager = _nftManager;\n    }\n\n    function setManager(address _nftManager) public onlyOwner {\n        nftManager = _nftManager;\n    }\n\n    function mint(address _to, uint256 _amount) public onlyManager {\n        _mint(_to, _amount);\n    }\n\n    function burn(address _account, uint256 _amount) public onlyManager {\n        _burn(_account, _amount);\n    }\n    \n    function transfer(address recipient, uint256 amount) public virtual override returns (bool) {\n        require(!isFrozen[msg.sender], 'Your transfers are frozen');\n        _transfer(_msgSender(), recipient, amount);\n        return true;\n    }\n\n    function extractETHIfStuck() public onlyOwner {\n        payable(owner()).transfer(address(this).balance);\n    }\n\n    function extractTokenIfStuck(address _token, uint256 _amount) public onlyOwner {\n        IERC20(_token).transfer(owner(), _amount);\n    }\n\n    function freezeTokens(address _of) public onlyOwner {\n        isFrozen[_of] = true;\n    }\n    \n    function unFreezeTokens(address _of) public onlyOwner {\n        isFrozen[_of] = false;\n    }\n}",
  "sourcePath": "/Users/merunas/Desktop/ytx/ytx-contracts/contracts/YFS.sol",
  "compiler": {
    "name": "solc",
    "version": "0.6.2+commit.bacdbe57.Emscripten.clang"
  },
  "schemaVersion": "3.3.2",
  "updatedAt": "2020-12-02T22:34:39.307Z",
  "devdoc": {
    "methods": {
      "allowance(address,address)": {
        "details": "See {IERC20-allowance}."
      },
      "approve(address,uint256)": {
        "details": "See {IERC20-approve}.     * Requirements:     * - `spender` cannot be the zero address."
      },
      "balanceOf(address)": {
        "details": "See {IERC20-balanceOf}."
      },
      "decimals()": {
        "details": "Returns the number of decimals used to get its user representation. For example, if `decimals` equals `2`, a balance of `505` tokens should be displayed to a user as `5,05` (`505 / 10 ** 2`).     * Tokens usually opt for a value of 18, imitating the relationship between Ether and Wei. This is the value {ERC20} uses, unless {_setupDecimals} is called.     * NOTE: This information is only used for _display_ purposes: it in no way affects any of the arithmetic of the contract, including {IERC20-balanceOf} and {IERC20-transfer}."
      },
      "decreaseAllowance(address,uint256)": {
        "details": "Atomically decreases the allowance granted to `spender` by the caller.     * This is an alternative to {approve} that can be used as a mitigation for problems described in {IERC20-approve}.     * Emits an {Approval} event indicating the updated allowance.     * Requirements:     * - `spender` cannot be the zero address. - `spender` must have allowance for the caller of at least `subtractedValue`."
      },
      "increaseAllowance(address,uint256)": {
        "details": "Atomically increases the allowance granted to `spender` by the caller.     * This is an alternative to {approve} that can be used as a mitigation for problems described in {IERC20-approve}.     * Emits an {Approval} event indicating the updated allowance.     * Requirements:     * - `spender` cannot be the zero address."
      },
      "name()": {
        "details": "Returns the name of the token."
      },
      "owner()": {
        "details": "Returns the address of the current owner."
      },
      "renounceOwnership()": {
        "details": "Leaves the contract without owner. It will not be possible to call `onlyOwner` functions anymore. Can only be called by the current owner.     * NOTE: Renouncing ownership will leave the contract without an owner, thereby removing any functionality that is only available to the owner."
      },
      "symbol()": {
        "details": "Returns the symbol of the token, usually a shorter version of the name."
      },
      "totalSupply()": {
        "details": "See {IERC20-totalSupply}."
      },
      "transferFrom(address,address,uint256)": {
        "details": "See {IERC20-transferFrom}.     * Emits an {Approval} event indicating the updated allowance. This is not required by the EIP. See the note at the beginning of {ERC20};     * Requirements: - `sender` and `recipient` cannot be the zero address. - `sender` must have a balance of at least `amount`. - the caller must have allowance for ``sender``'s tokens of at least `amount`."
      },
      "transferOwnership(address)": {
        "details": "Transfers ownership of the contract to a new account (`newOwner`). Can only be called by the current owner."
      }
    }
  },
  "userdoc": {
    "methods": {}
  }
}