{
  "contractName": "YTXV3",
  "abi": [
    {
      "anonymous": false,
      "inputs": [
        {
          "indexed": true,
          "internalType": "address",
          "name": "owner",
          "type": "address"
        },
        {
          "indexed": true,
          "internalType": "address",
          "name": "spender",
          "type": "address"
        },
        {
          "indexed": false,
          "internalType": "uint256",
          "name": "value",
          "type": "uint256"
        }
      ],
      "name": "Approval",
      "type": "event"
    },
    {
      "anonymous": false,
      "inputs": [
        {
          "indexed": false,
          "internalType": "address",
          "name": "sender",
          "type": "address"
        },
        {
          "indexed": false,
          "internalType": "uint256",
          "name": "amount",
          "type": "uint256"
        }
      ],
      "name": "Fee",
      "type": "event"
    },
    {
      "anonymous": false,
      "inputs": [
        {
          "indexed": true,
          "internalType": "address",
          "name": "previousOwner",
          "type": "address"
        },
        {
          "indexed": true,
          "internalType": "address",
          "name": "newOwner",
          "type": "address"
        }
      ],
      "name": "OwnershipTransferred",
      "type": "event"
    },
    {
      "anonymous": false,
      "inputs": [
        {
          "indexed": true,
          "internalType": "address",
          "name": "from",
          "type": "address"
        },
        {
          "indexed": true,
          "internalType": "address",
          "name": "to",
          "type": "address"
        },
        {
          "indexed": false,
          "internalType": "uint256",
          "name": "value",
          "type": "uint256"
        }
      ],
      "name": "Transfer",
      "type": "event"
    },
    {
      "inputs": [
        {
          "internalType": "address",
          "name": "",
          "type": "address"
        }
      ],
      "name": "isFrozen",
      "outputs": [
        {
          "internalType": "bool",
          "name": "",
          "type": "bool"
        }
      ],
      "stateMutability": "view",
      "type": "function"
    },
    {
      "inputs": [],
      "name": "owner",
      "outputs": [
        {
          "internalType": "address",
          "name": "",
          "type": "address"
        }
      ],
      "stateMutability": "view",
      "type": "function"
    },
    {
      "inputs": [],
      "name": "renounceOwnership",
      "outputs": [],
      "stateMutability": "nonpayable",
      "type": "function"
    },
    {
      "inputs": [],
      "name": "transferFee",
      "outputs": [
        {
          "internalType": "uint256",
          "name": "",
          "type": "uint256"
        }
      ],
      "stateMutability": "view",
      "type": "function"
    },
    {
      "inputs": [
        {
          "internalType": "address",
          "name": "newOwner",
          "type": "address"
        }
      ],
      "name": "transferOwnership",
      "outputs": [],
      "stateMutability": "nonpayable",
      "type": "function"
    },
    {
      "inputs": [],
      "name": "treasury",
      "outputs": [
        {
          "internalType": "address",
          "name": "",
          "type": "address"
        }
      ],
      "stateMutability": "view",
      "type": "function"
    },
    {
      "inputs": [],
      "name": "initialize",
      "outputs": [],
      "stateMutability": "nonpayable",
      "type": "function"
    },
    {
      "inputs": [
        {
          "internalType": "address",
          "name": "_treasury",
          "type": "address"
        }
      ],
      "name": "setTreasury",
      "outputs": [],
      "stateMutability": "nonpayable",
      "type": "function"
    },
    {
      "inputs": [],
      "name": "name",
      "outputs": [
        {
          "internalType": "string",
          "name": "",
          "type": "string"
        }
      ],
      "stateMutability": "view",
      "type": "function"
    },
    {
      "inputs": [],
      "name": "symbol",
      "outputs": [
        {
          "internalType": "string",
          "name": "",
          "type": "string"
        }
      ],
      "stateMutability": "view",
      "type": "function"
    },
    {
      "inputs": [],
      "name": "decimals",
      "outputs": [
        {
          "internalType": "uint8",
          "name": "",
          "type": "uint8"
        }
      ],
      "stateMutability": "view",
      "type": "function"
    },
    {
      "inputs": [],
      "name": "totalSupply",
      "outputs": [
        {
          "internalType": "uint256",
          "name": "",
          "type": "uint256"
        }
      ],
      "stateMutability": "view",
      "type": "function"
    },
    {
      "inputs": [
        {
          "internalType": "address",
          "name": "account",
          "type": "address"
        }
      ],
      "name": "balanceOf",
      "outputs": [
        {
          "internalType": "uint256",
          "name": "",
          "type": "uint256"
        }
      ],
      "stateMutability": "view",
      "type": "function"
    },
    {
      "inputs": [
        {
          "internalType": "address",
          "name": "recipient",
          "type": "address"
        },
        {
          "internalType": "uint256",
          "name": "amount",
          "type": "uint256"
        }
      ],
      "name": "transfer",
      "outputs": [
        {
          "internalType": "bool",
          "name": "",
          "type": "bool"
        }
      ],
      "stateMutability": "nonpayable",
      "type": "function"
    },
    {
      "inputs": [
        {
          "internalType": "address",
          "name": "_account",
          "type": "address"
        },
        {
          "internalType": "uint256",
          "name": "_amount",
          "type": "uint256"
        }
      ],
      "name": "burn",
      "outputs": [
        {
          "internalType": "bool",
          "name": "",
          "type": "bool"
        }
      ],
      "stateMutability": "nonpayable",
      "type": "function"
    },
    {
      "inputs": [],
      "name": "extractETHIfStuck",
      "outputs": [],
      "stateMutability": "nonpayable",
      "type": "function"
    },
    {
      "inputs": [
        {
          "internalType": "address",
          "name": "_token",
          "type": "address"
        },
        {
          "internalType": "uint256",
          "name": "_amount",
          "type": "uint256"
        }
      ],
      "name": "extractTokenIfStuck",
      "outputs": [],
      "stateMutability": "nonpayable",
      "type": "function"
    },
    {
      "inputs": [
        {
          "internalType": "address",
          "name": "owner",
          "type": "address"
        },
        {
          "internalType": "address",
          "name": "spender",
          "type": "address"
        }
      ],
      "name": "allowance",
      "outputs": [
        {
          "internalType": "uint256",
          "name": "",
          "type": "uint256"
        }
      ],
      "stateMutability": "view",
      "type": "function"
    },
    {
      "inputs": [
        {
          "internalType": "address",
          "name": "spender",
          "type": "address"
        },
        {
          "internalType": "uint256",
          "name": "amount",
          "type": "uint256"
        }
      ],
      "name": "approve",
      "outputs": [
        {
          "internalType": "bool",
          "name": "",
          "type": "bool"
        }
      ],
      "stateMutability": "nonpayable",
      "type": "function"
    },
    {
      "inputs": [
        {
          "internalType": "address",
          "name": "sender",
          "type": "address"
        },
        {
          "internalType": "address",
          "name": "recipient",
          "type": "address"
        },
        {
          "internalType": "uint256",
          "name": "amount",
          "type": "uint256"
        }
      ],
      "name": "transferFrom",
      "outputs": [
        {
          "internalType": "bool",
          "name": "",
          "type": "bool"
        }
      ],
      "stateMutability": "nonpayable",
      "type": "function"
    },
    {
      "inputs": [
        {
          "internalType": "address",
          "name": "spender",
          "type": "address"
        },
        {
          "internalType": "uint256",
          "name": "addedValue",
          "type": "uint256"
        }
      ],
      "name": "increaseAllowance",
      "outputs": [
        {
          "internalType": "bool",
          "name": "",
          "type": "bool"
        }
      ],
      "stateMutability": "nonpayable",
      "type": "function"
    },
    {
      "inputs": [
        {
          "internalType": "address",
          "name": "spender",
          "type": "address"
        },
        {
          "internalType": "uint256",
          "name": "subtractedValue",
          "type": "uint256"
        }
      ],
      "name": "decreaseAllowance",
      "outputs": [
        {
          "internalType": "bool",
          "name": "",
          "type": "bool"
        }
      ],
      "stateMutability": "nonpayable",
      "type": "function"
    },
    {
      "inputs": [
        {
          "internalType": "address",
          "name": "_of",
          "type": "address"
        }
      ],
      "name": "freezeTokens",
      "outputs": [],
      "stateMutability": "nonpayable",
      "type": "function"
    },
    {
      "inputs": [
        {
          "internalType": "address",
          "name": "_of",
          "type": "address"
        }
      ],
      "name": "unFreezeTokens",
      "outputs": [],
      "stateMutability": "nonpayable",
      "type": "function"
    },
    {
      "inputs": [
        {
          "internalType": "uint256",
          "name": "_fee",
          "type": "uint256"
        }
      ],
      "name": "changeFee",
      "outputs": [],
      "stateMutability": "nonpayable",
      "type": "function"
    }
  ],
  "bytecode": "0x608060405234801561001057600080fd5b50611f39806100206000396000f3fe608060405234801561001057600080fd5b50600436106101a35760003560e01c806370a08231116100ee578063a457c2d711610097578063dd62ed3e11610071578063dd62ed3e14610523578063e58398361461055e578063f0f4426014610591578063f2fde38b146105c4576101a3565b8063a457c2d7146104a9578063a9059cbb146104e2578063acb2ad6f1461051b576101a3565b80638da5cb5b116100c85780638da5cb5b1461046057806395d89b41146104685780639dc29fac14610470576101a3565b806370a082311461041d578063715018a6146104505780638129fc1c14610458576101a3565b806339509351116101505780635607f4081161012a5780635607f4081461039c57806361d027b3146103cf5780636a1db1bf14610400576101a3565b806339509351146103285780634fe41129146103615780635471191d14610369576101a3565b806318160ddd1161018157806318160ddd146102ad57806323b872dd146102c7578063313ce5671461030a576101a3565b8063041be19a146101a857806306fdde03146101e3578063095ea7b314610260575b600080fd5b6101e1600480360360408110156101be57600080fd5b5073ffffffffffffffffffffffffffffffffffffffff81351690602001356105f7565b005b6101eb610746565b6040805160208082528351818301528351919283929083019185019080838360005b8381101561022557818101518382015260200161020d565b50505050905090810190601f1680156102525780820380516001836020036101000a031916815260200191505b509250505060405180910390f35b6102996004803603604081101561027657600080fd5b5073ffffffffffffffffffffffffffffffffffffffff81351690602001356107fb565b604080519115158252519081900360200190f35b6102b5610819565b60408051918252519081900360200190f35b610299600480360360608110156102dd57600080fd5b5073ffffffffffffffffffffffffffffffffffffffff81358116916020810135909116906040013561081f565b6103126108c6565b6040805160ff9092168252519081900360200190f35b6102996004803603604081101561033e57600080fd5b5073ffffffffffffffffffffffffffffffffffffffff81351690602001356108cf565b6101e1610930565b6101e16004803603602081101561037f57600080fd5b503573ffffffffffffffffffffffffffffffffffffffff16610a11565b6101e1600480360360208110156103b257600080fd5b503573ffffffffffffffffffffffffffffffffffffffff16610aee565b6103d7610bce565b6040805173ffffffffffffffffffffffffffffffffffffffff9092168252519081900360200190f35b6101e16004803603602081101561041657600080fd5b5035610bea565b6102b56004803603602081101561043357600080fd5b503573ffffffffffffffffffffffffffffffffffffffff16610c80565b6101e1610ca8565b6101e1610da8565b6103d7610f9c565b6101eb610fb8565b6102996004803603604081101561048657600080fd5b5073ffffffffffffffffffffffffffffffffffffffff8135169060200135611037565b610299600480360360408110156104bf57600080fd5b5073ffffffffffffffffffffffffffffffffffffffff81351690602001356110d4565b610299600480360360408110156104f857600080fd5b5073ffffffffffffffffffffffffffffffffffffffff813516906020013561114f565b6102b56111e0565b6102b56004803603604081101561053957600080fd5b5073ffffffffffffffffffffffffffffffffffffffff813581169160200135166111e6565b6102996004803603602081101561057457600080fd5b503573ffffffffffffffffffffffffffffffffffffffff1661121e565b6101e1600480360360208110156105a757600080fd5b503573ffffffffffffffffffffffffffffffffffffffff16611233565b6101e1600480360360208110156105da57600080fd5b503573ffffffffffffffffffffffffffffffffffffffff1661130b565b6105ff611496565b60655473ffffffffffffffffffffffffffffffffffffffff90811691161461068857604080517f08c379a000000000000000000000000000000000000000000000000000000000815260206004820181905260248201527f4f776e61626c653a2063616c6c6572206973206e6f7420746865206f776e6572604482015290519081900360640190fd5b8173ffffffffffffffffffffffffffffffffffffffff1663a9059cbb6106ac610f9c565b836040518363ffffffff1660e01b8152600401808373ffffffffffffffffffffffffffffffffffffffff1673ffffffffffffffffffffffffffffffffffffffff16815260200182815260200192505050602060405180830381600087803b15801561071657600080fd5b505af115801561072a573d6000803e3d6000fd5b505050506040513d602081101561074057600080fd5b50505050565b609a8054604080516020601f60027fffffffffffffffffffffffffffffffffffffffffffffffffffffffffffffffff6101006001881615020190951694909404938401819004810282018101909252828152606093909290918301828280156107f05780601f106107c5576101008083540402835291602001916107f0565b820191906000526020600020905b8154815290600101906020018083116107d357829003601f168201915b505050505090505b90565b600061080f610808611496565b848461149a565b5060015b92915050565b60995490565b600061082c8484846115e1565b6108bc84610838611496565b6108b785604051806060016040528060288152602001611e1f6028913973ffffffffffffffffffffffffffffffffffffffff8a16600090815260986020526040812090610883611496565b73ffffffffffffffffffffffffffffffffffffffff168152602081019190915260400160002054919063ffffffff61186b16565b61149a565b5060019392505050565b609c5460ff1690565b600061080f6108dc611496565b846108b785609860006108ed611496565b73ffffffffffffffffffffffffffffffffffffffff908116825260208083019390935260409182016000908120918c16815292529020549063ffffffff61191c16565b610938611496565b60655473ffffffffffffffffffffffffffffffffffffffff9081169116146109c157604080517f08c379a000000000000000000000000000000000000000000000000000000000815260206004820181905260248201527f4f776e61626c653a2063616c6c6572206973206e6f7420746865206f776e6572604482015290519081900360640190fd5b6109c9610f9c565b73ffffffffffffffffffffffffffffffffffffffff166108fc479081150290604051600060405180830381858888f19350505050158015610a0e573d6000803e3d6000fd5b50565b610a19611496565b60655473ffffffffffffffffffffffffffffffffffffffff908116911614610aa257604080517f08c379a000000000000000000000000000000000000000000000000000000000815260206004820181905260248201527f4f776e61626c653a2063616c6c6572206973206e6f7420746865206f776e6572604482015290519081900360640190fd5b73ffffffffffffffffffffffffffffffffffffffff166000908152609d6020526040902080547fffffffffffffffffffffffffffffffffffffffffffffffffffffffffffffff00169055565b610af6611496565b60655473ffffffffffffffffffffffffffffffffffffffff908116911614610b7f57604080517f08c379a000000000000000000000000000000000000000000000000000000000815260206004820181905260248201527f4f776e61626c653a2063616c6c6572206973206e6f7420746865206f776e6572604482015290519081900360640190fd5b73ffffffffffffffffffffffffffffffffffffffff166000908152609d6020526040902080547fffffffffffffffffffffffffffffffffffffffffffffffffffffffffffffff00166001179055565b609f5473ffffffffffffffffffffffffffffffffffffffff1681565b610bf2611496565b60655473ffffffffffffffffffffffffffffffffffffffff908116911614610c7b57604080517f08c379a000000000000000000000000000000000000000000000000000000000815260206004820181905260248201527f4f776e61626c653a2063616c6c6572206973206e6f7420746865206f776e6572604482015290519081900360640190fd5b609e55565b73ffffffffffffffffffffffffffffffffffffffff1660009081526097602052604090205490565b610cb0611496565b60655473ffffffffffffffffffffffffffffffffffffffff908116911614610d3957604080517f08c379a000000000000000000000000000000000000000000000000000000000815260206004820181905260248201527f4f776e61626c653a2063616c6c6572206973206e6f7420746865206f776e6572604482015290519081900360640190fd5b60655460405160009173ffffffffffffffffffffffffffffffffffffffff16907f8be0079c531659141344cd1fd0a4f28419497f9722a3daafe3b4186f6b6457e0908390a3606580547fffffffffffffffffffffffff0000000000000000000000000000000000000000169055565b600054610100900460ff1680610dc15750610dc1611997565b80610dcf575060005460ff16155b610e24576040517f08c379a000000000000000000000000000000000000000000000000000000000815260040180806020018281038252602e815260200180611e47602e913960400191505060405180910390fd5b600054610100900460ff16158015610e8a57600080547fffffffffffffffffffffffffffffffffffffffffffffffffffffffffffffff007fffffffffffffffffffffffffffffffffffffffffffffffffffffffffffff00ff909116610100171660011790555b690cb49b44ba602d8000006099556040805180820190915260038082527f59545800000000000000000000000000000000000000000000000000000000006020909201918252610edc91609a91611cb2565b506040805180820190915260038082527f59545800000000000000000000000000000000000000000000000000000000006020909201918252610f2191609b91611cb2565b50609c80547fffffffffffffffffffffffffffffffffffffffffffffffffffffffffffffff0016601217905560995433600090815260976020526040902055662386f26fc10000609e558015610a0e57600080547fffffffffffffffffffffffffffffffffffffffffffffffffffffffffffff00ff16905550565b60655473ffffffffffffffffffffffffffffffffffffffff1690565b609b8054604080516020601f60027fffffffffffffffffffffffffffffffffffffffffffffffffffffffffffffffff6101006001881615020190951694909404938401819004810282018101909252828152606093909290918301828280156107f05780601f106107c5576101008083540402835291602001916107f0565b6000611041611496565b60655473ffffffffffffffffffffffffffffffffffffffff9081169116146110ca57604080517f08c379a000000000000000000000000000000000000000000000000000000000815260206004820181905260248201527f4f776e61626c653a2063616c6c6572206973206e6f7420746865206f776e6572604482015290519081900360640190fd5b61080f838361199d565b600061080f6110e1611496565b846108b785604051806060016040528060258152602001611edf602591396098600061110b611496565b73ffffffffffffffffffffffffffffffffffffffff908116825260208083019390935260409182016000908120918d1681529252902054919063ffffffff61186b16565b336000908152609d602052604081205460ff16156111ce57604080517f08c379a000000000000000000000000000000000000000000000000000000000815260206004820152601960248201527f596f7572207472616e7366657273206172652066726f7a656e00000000000000604482015290519081900360640190fd5b61080f6111d9611496565b84846115e1565b609e5481565b73ffffffffffffffffffffffffffffffffffffffff918216600090815260986020908152604080832093909416825291909152205490565b609d6020526000908152604090205460ff1681565b61123b611496565b60655473ffffffffffffffffffffffffffffffffffffffff9081169116146112c457604080517f08c379a000000000000000000000000000000000000000000000000000000000815260206004820181905260248201527f4f776e61626c653a2063616c6c6572206973206e6f7420746865206f776e6572604482015290519081900360640190fd5b609f80547fffffffffffffffffffffffff00000000000000000000000000000000000000001673ffffffffffffffffffffffffffffffffffffffff92909216919091179055565b611313611496565b60655473ffffffffffffffffffffffffffffffffffffffff90811691161461139c57604080517f08c379a000000000000000000000000000000000000000000000000000000000815260206004820181905260248201527f4f776e61626c653a2063616c6c6572206973206e6f7420746865206f776e6572604482015290519081900360640190fd5b73ffffffffffffffffffffffffffffffffffffffff8116611408576040517f08c379a0000000000000000000000000000000000000000000000000000000008152600401808060200182810382526026815260200180611d906026913960400191505060405180910390fd5b60655460405173ffffffffffffffffffffffffffffffffffffffff8084169216907f8be0079c531659141344cd1fd0a4f28419497f9722a3daafe3b4186f6b6457e090600090a3606580547fffffffffffffffffffffffff00000000000000000000000000000000000000001673ffffffffffffffffffffffffffffffffffffffff92909216919091179055565b3390565b73ffffffffffffffffffffffffffffffffffffffff8316611506576040517f08c379a0000000000000000000000000000000000000000000000000000000008152600401808060200182810382526024815260200180611ebb6024913960400191505060405180910390fd5b73ffffffffffffffffffffffffffffffffffffffff8216611572576040517f08c379a0000000000000000000000000000000000000000000000000000000008152600401808060200182810382526022815260200180611db66022913960400191505060405180910390fd5b73ffffffffffffffffffffffffffffffffffffffff808416600081815260986020908152604080832094871680845294825291829020859055815185815291517f8c5be1e5ebec7d5bd14f71427d1e84f3dd0314c0f7b2291e5b200ac8c7c3b9259281900390910190a3505050565b73ffffffffffffffffffffffffffffffffffffffff831661164d576040517f08c379a0000000000000000000000000000000000000000000000000000000008152600401808060200182810382526025815260200180611e966025913960400191505060405180910390fd5b73ffffffffffffffffffffffffffffffffffffffff82166116b9576040517f08c379a0000000000000000000000000000000000000000000000000000000008152600401808060200182810382526023815260200180611d4b6023913960400191505060405180910390fd5b6116c4838383611af3565b6000806116d083611af8565b9150915061172483604051806060016040528060268152602001611dd86026913973ffffffffffffffffffffffffffffffffffffffff8816600090815260976020526040902054919063ffffffff61186b16565b73ffffffffffffffffffffffffffffffffffffffff8087166000908152609760205260408082209390935590861681522054611766908263ffffffff61191c16565b73ffffffffffffffffffffffffffffffffffffffff80861660009081526097602052604080822093909355609f54909116815220546117ab908363ffffffff61191c16565b609f5473ffffffffffffffffffffffffffffffffffffffff908116600090815260976020908152604091829020939093558051848152905187831693928916927fddf252ad1be2c89b69c2b068fc378daa952ba7f163c4a11628f55a4df523b3ef928290030190a36040805173ffffffffffffffffffffffffffffffffffffffff871681526020810184905281517f7bd3aa7d673767f759ebf216e7f6c12844986c661ae6e0f1d988cf7eb7394d1d929181900390910190a15050505050565b60008184841115611914576040517f08c379a00000000000000000000000000000000000000000000000000000000081526004018080602001828103825283818151815260200191508051906020019080838360005b838110156118d95781810151838201526020016118c1565b50505050905090810190601f1680156119065780820380516001836020036101000a031916815260200191505b509250505060405180910390fd5b505050900390565b60008282018381101561199057604080517f08c379a000000000000000000000000000000000000000000000000000000000815260206004820152601b60248201527f536166654d6174683a206164646974696f6e206f766572666c6f770000000000604482015290519081900360640190fd5b9392505050565b303b1590565b73ffffffffffffffffffffffffffffffffffffffff8216611a09576040517f08c379a0000000000000000000000000000000000000000000000000000000008152600401808060200182810382526021815260200180611e756021913960400191505060405180910390fd5b611a1582600083611af3565b611a6581604051806060016040528060228152602001611d6e6022913973ffffffffffffffffffffffffffffffffffffffff8516600090815260976020526040902054919063ffffffff61186b16565b73ffffffffffffffffffffffffffffffffffffffff8316600090815260976020526040902055609954611a9e908263ffffffff611b4116565b60995560408051828152905160009173ffffffffffffffffffffffffffffffffffffffff8516917fddf252ad1be2c89b69c2b068fc378daa952ba7f163c4a11628f55a4df523b3ef9181900360200190a35050565b505050565b600080611b28670de0b6b3a7640000611b1c609e5486611b8390919063ffffffff16565b9063ffffffff611bf616565b9150611b3a838363ffffffff611b4116565b9050915091565b600061199083836040518060400160405280601e81526020017f536166654d6174683a207375627472616374696f6e206f766572666c6f77000081525061186b565b600082611b9257506000610813565b82820282848281611b9f57fe5b0414611990576040517f08c379a0000000000000000000000000000000000000000000000000000000008152600401808060200182810382526021815260200180611dfe6021913960400191505060405180910390fd5b600061199083836040518060400160405280601a81526020017f536166654d6174683a206469766973696f6e206279207a65726f00000000000081525060008183611c9c576040517f08c379a00000000000000000000000000000000000000000000000000000000081526020600482018181528351602484015283519092839260449091019190850190808383600083156118d95781810151838201526020016118c1565b506000838581611ca857fe5b0495945050505050565b828054600181600116156101000203166002900490600052602060002090601f016020900481019282601f10611cf357805160ff1916838001178555611d20565b82800160010185558215611d20579182015b82811115611d20578251825591602001919060010190611d05565b50611d2c929150611d30565b5090565b6107f891905b80821115611d2c5760008155600101611d3656fe45524332303a207472616e7366657220746f20746865207a65726f206164647265737345524332303a206275726e20616d6f756e7420657863656564732062616c616e63654f776e61626c653a206e6577206f776e657220697320746865207a65726f206164647265737345524332303a20617070726f766520746f20746865207a65726f206164647265737345524332303a207472616e7366657220616d6f756e7420657863656564732062616c616e6365536166654d6174683a206d756c7469706c69636174696f6e206f766572666c6f7745524332303a207472616e7366657220616d6f756e74206578636565647320616c6c6f77616e6365436f6e747261637420696e7374616e63652068617320616c7265616479206265656e20696e697469616c697a656445524332303a206275726e2066726f6d20746865207a65726f206164647265737345524332303a207472616e736665722066726f6d20746865207a65726f206164647265737345524332303a20617070726f76652066726f6d20746865207a65726f206164647265737345524332303a2064656372656173656420616c6c6f77616e63652062656c6f77207a65726fa26469706673582212201f9fe1d8370dcbd6bc22a427e6b3f04ded5b74680ebf47087a3d3d2c1ceed12864736f6c63430006020033",
  "source": "pragma solidity =0.6.2;\n\nimport '@openzeppelin/contracts-ethereum-package/contracts/access/Ownable.sol';\nimport '@openzeppelin/contracts-ethereum-package/contracts/token/ERC20/IERC20.sol';\nimport '@openzeppelin/contracts-ethereum-package/contracts/Initializable.sol';\nimport '@openzeppelin/contracts-ethereum-package/contracts/math/SafeMath.sol';\n\ncontract YTXV3 is Initializable, OwnableUpgradeSafe, IERC20 {\n    using SafeMath for uint256;\n\n    mapping (address => uint256) private _balances;\n    mapping (address => mapping (address => uint256)) private _allowances;\n    uint256 private _totalSupply;\n    string private _name;\n    string private _symbol;\n    uint8 private _decimals;\n    mapping (address => bool) public isFrozen;\n    uint256 public transferFee;\n    address public treasury;\n\n    event Fee(address sender, uint256 amount);\n    \n    function initialize() public initializer {\n        _totalSupply = 60000 * 1e18; // 60k tokens\n        _name = 'YTX';\n        _symbol = 'YTX';\n        _decimals = 18;\n        _balances[msg.sender] = _totalSupply;\n        transferFee = 1e16; // 1% out of 100% which is 1e16 out of 1e18\n    }\n\n    function setTreasury(address _treasury) public onlyOwner {\n        treasury = _treasury;\n    }\n\n    function name() public view returns (string memory) {\n        return _name;\n    }\n    \n    function symbol() public view returns (string memory) {\n        return _symbol;\n    }\n    \n    function decimals() public view returns (uint8) {\n        return _decimals;\n    }\n    \n    function totalSupply() public view override returns (uint256) {\n        return _totalSupply;\n    }\n    \n    function balanceOf(address account) public view override returns (uint256) {\n        return _balances[account];\n    }\n    \n    function transfer(address recipient, uint256 amount) public virtual override returns (bool) {\n        require(!isFrozen[msg.sender], 'Your transfers are frozen');\n        _transfer(_msgSender(), recipient, amount);\n        return true;\n    }\n\n    function burn(address _account, uint256 _amount) public onlyOwner returns (bool) {\n        _burn(_account, _amount);\n        return true;\n    }\n\n    function extractETHIfStuck() public onlyOwner {\n        payable(owner()).transfer(address(this).balance);\n    }\n\n    function extractTokenIfStuck(address _token, uint256 _amount) public onlyOwner {\n        IERC20(_token).transfer(owner(), _amount);\n    }\n    \n    function allowance(address owner, address spender) public view virtual override returns (uint256) {\n        return _allowances[owner][spender];\n    }\n    \n    function approve(address spender, uint256 amount) public virtual override returns (bool) {\n        _approve(_msgSender(), spender, amount);\n        return true;\n    }\n    \n    function transferFrom(address sender, address recipient, uint256 amount) public virtual override returns (bool) {\n        _transfer(sender, recipient, amount);\n        _approve(sender, _msgSender(), _allowances[sender][_msgSender()].sub(amount, \"ERC20: transfer amount exceeds allowance\"));\n        return true;\n    }\n    \n    function increaseAllowance(address spender, uint256 addedValue) public virtual returns (bool) {\n        _approve(_msgSender(), spender, _allowances[_msgSender()][spender].add(addedValue));\n        return true;\n    }\n    \n    function decreaseAllowance(address spender, uint256 subtractedValue) public virtual returns (bool) {\n        _approve(_msgSender(), spender, _allowances[_msgSender()][spender].sub(subtractedValue, \"ERC20: decreased allowance below zero\"));\n        return true;\n    }\n    \n    function _transfer(address sender, address recipient, uint256 amount) internal virtual {\n        require(sender != address(0), \"ERC20: transfer from the zero address\");\n        require(recipient != address(0), \"ERC20: transfer to the zero address\");\n\n        _beforeTokenTransfer(sender, recipient, amount);\n\n        // YTX\n        (uint256 fee, uint256 remaining) = calculateFee(amount);\n\n        _balances[sender] = _balances[sender].sub(amount, \"ERC20: transfer amount exceeds balance\");\n        // Remaining transfer\n        _balances[recipient] = _balances[recipient].add(remaining);\n        // Fee transfer\n        _balances[treasury] = _balances[treasury].add(fee);\n\n        emit Transfer(sender, recipient, remaining);\n        emit Fee(sender, fee);\n    }\n\n    function _burn(address account, uint256 amount) internal virtual {\n        require(account != address(0), \"ERC20: burn from the zero address\");\n\n        _beforeTokenTransfer(account, address(0), amount);\n\n        _balances[account] = _balances[account].sub(amount, \"ERC20: burn amount exceeds balance\");\n        _totalSupply = _totalSupply.sub(amount);\n        emit Transfer(account, address(0), amount);\n    }\n\n    function _approve(address owner, address spender, uint256 amount) internal virtual {\n        require(owner != address(0), \"ERC20: approve from the zero address\");\n        require(spender != address(0), \"ERC20: approve to the zero address\");\n\n        _allowances[owner][spender] = amount;\n        emit Approval(owner, spender, amount);\n    }\n\n    function _setupDecimals(uint8 decimals_) internal {\n        _decimals = decimals_;\n    }\n\n    function _beforeTokenTransfer(address from, address to, uint256 amount) internal virtual {}\n\n    function freezeTokens(address _of) public onlyOwner {\n        isFrozen[_of] = true;\n    }\n    \n    function unFreezeTokens(address _of) public onlyOwner {\n        isFrozen[_of] = false;\n    }\n\n    function changeFee(uint256 _fee) public onlyOwner {\n        transferFee = _fee;\n    }\n\n    function calculateFee(uint256 _amount) internal view returns(uint256 fee, uint256 remaining) {\n        fee = _amount.mul(transferFee).div(1e18);\n        remaining = _amount.sub(fee);\n    }\n}",
  "sourcePath": "/Users/merunas/Desktop/ytx/ytx-contracts/contracts/YTXV3.sol",
  "compiler": {
    "name": "solc",
    "version": "0.6.2+commit.bacdbe57.Emscripten.clang"
  },
  "schemaVersion": "3.3.2",
  "updatedAt": "2020-12-02T22:34:39.317Z",
  "devdoc": {
    "methods": {
      "owner()": {
        "details": "Returns the address of the current owner."
      },
      "renounceOwnership()": {
        "details": "Leaves the contract without owner. It will not be possible to call `onlyOwner` functions anymore. Can only be called by the current owner.     * NOTE: Renouncing ownership will leave the contract without an owner, thereby removing any functionality that is only available to the owner."
      },
      "transferOwnership(address)": {
        "details": "Transfers ownership of the contract to a new account (`newOwner`). Can only be called by the current owner."
      }
    }
  },
  "userdoc": {
    "methods": {}
  }
}