{
  "contractName": "YTXV2",
  "abi": [
    {
      "anonymous": false,
      "inputs": [
        {
          "indexed": true,
          "internalType": "address",
          "name": "owner",
          "type": "address"
        },
        {
          "indexed": true,
          "internalType": "address",
          "name": "spender",
          "type": "address"
        },
        {
          "indexed": false,
          "internalType": "uint256",
          "name": "value",
          "type": "uint256"
        }
      ],
      "name": "Approval",
      "type": "event"
    },
    {
      "anonymous": false,
      "inputs": [
        {
          "indexed": true,
          "internalType": "address",
          "name": "previousOwner",
          "type": "address"
        },
        {
          "indexed": true,
          "internalType": "address",
          "name": "newOwner",
          "type": "address"
        }
      ],
      "name": "OwnershipTransferred",
      "type": "event"
    },
    {
      "anonymous": false,
      "inputs": [
        {
          "indexed": true,
          "internalType": "address",
          "name": "from",
          "type": "address"
        },
        {
          "indexed": true,
          "internalType": "address",
          "name": "to",
          "type": "address"
        },
        {
          "indexed": false,
          "internalType": "uint256",
          "name": "value",
          "type": "uint256"
        }
      ],
      "name": "Transfer",
      "type": "event"
    },
    {
      "inputs": [
        {
          "internalType": "address",
          "name": "",
          "type": "address"
        }
      ],
      "name": "isFrozen",
      "outputs": [
        {
          "internalType": "bool",
          "name": "",
          "type": "bool"
        }
      ],
      "stateMutability": "view",
      "type": "function",
      "constant": true
    },
    {
      "inputs": [],
      "name": "owner",
      "outputs": [
        {
          "internalType": "address",
          "name": "",
          "type": "address"
        }
      ],
      "stateMutability": "view",
      "type": "function",
      "constant": true
    },
    {
      "inputs": [],
      "name": "renounceOwnership",
      "outputs": [],
      "stateMutability": "nonpayable",
      "type": "function"
    },
    {
      "inputs": [
        {
          "internalType": "address",
          "name": "newOwner",
          "type": "address"
        }
      ],
      "name": "transferOwnership",
      "outputs": [],
      "stateMutability": "nonpayable",
      "type": "function"
    },
    {
      "inputs": [],
      "name": "initialize",
      "outputs": [],
      "stateMutability": "nonpayable",
      "type": "function"
    },
    {
      "inputs": [],
      "name": "name",
      "outputs": [
        {
          "internalType": "string",
          "name": "",
          "type": "string"
        }
      ],
      "stateMutability": "view",
      "type": "function",
      "constant": true
    },
    {
      "inputs": [],
      "name": "symbol",
      "outputs": [
        {
          "internalType": "string",
          "name": "",
          "type": "string"
        }
      ],
      "stateMutability": "view",
      "type": "function",
      "constant": true
    },
    {
      "inputs": [],
      "name": "decimals",
      "outputs": [
        {
          "internalType": "uint8",
          "name": "",
          "type": "uint8"
        }
      ],
      "stateMutability": "view",
      "type": "function",
      "constant": true
    },
    {
      "inputs": [
        {
          "internalType": "address",
          "name": "_of",
          "type": "address"
        }
      ],
      "name": "freezeTokens",
      "outputs": [],
      "stateMutability": "nonpayable",
      "type": "function"
    },
    {
      "inputs": [
        {
          "internalType": "address",
          "name": "_of",
          "type": "address"
        }
      ],
      "name": "unFreezeTokens",
      "outputs": [],
      "stateMutability": "nonpayable",
      "type": "function"
    },
    {
      "inputs": [],
      "name": "totalSupply",
      "outputs": [
        {
          "internalType": "uint256",
          "name": "",
          "type": "uint256"
        }
      ],
      "stateMutability": "view",
      "type": "function",
      "constant": true
    },
    {
      "inputs": [
        {
          "internalType": "address",
          "name": "account",
          "type": "address"
        }
      ],
      "name": "balanceOf",
      "outputs": [
        {
          "internalType": "uint256",
          "name": "",
          "type": "uint256"
        }
      ],
      "stateMutability": "view",
      "type": "function",
      "constant": true
    },
    {
      "inputs": [
        {
          "internalType": "address",
          "name": "recipient",
          "type": "address"
        },
        {
          "internalType": "uint256",
          "name": "amount",
          "type": "uint256"
        }
      ],
      "name": "transfer",
      "outputs": [
        {
          "internalType": "bool",
          "name": "",
          "type": "bool"
        }
      ],
      "stateMutability": "nonpayable",
      "type": "function"
    },
    {
      "inputs": [
        {
          "internalType": "address",
          "name": "_account",
          "type": "address"
        },
        {
          "internalType": "uint256",
          "name": "_amount",
          "type": "uint256"
        }
      ],
      "name": "burn",
      "outputs": [
        {
          "internalType": "bool",
          "name": "",
          "type": "bool"
        }
      ],
      "stateMutability": "nonpayable",
      "type": "function"
    },
    {
      "inputs": [],
      "name": "extractETHIfStuck",
      "outputs": [],
      "stateMutability": "nonpayable",
      "type": "function"
    },
    {
      "inputs": [
        {
          "internalType": "address",
          "name": "_token",
          "type": "address"
        },
        {
          "internalType": "uint256",
          "name": "_amount",
          "type": "uint256"
        }
      ],
      "name": "extractTokenIfStuck",
      "outputs": [],
      "stateMutability": "nonpayable",
      "type": "function"
    },
    {
      "inputs": [
        {
          "internalType": "address",
          "name": "owner",
          "type": "address"
        },
        {
          "internalType": "address",
          "name": "spender",
          "type": "address"
        }
      ],
      "name": "allowance",
      "outputs": [
        {
          "internalType": "uint256",
          "name": "",
          "type": "uint256"
        }
      ],
      "stateMutability": "view",
      "type": "function",
      "constant": true
    },
    {
      "inputs": [
        {
          "internalType": "address",
          "name": "spender",
          "type": "address"
        },
        {
          "internalType": "uint256",
          "name": "amount",
          "type": "uint256"
        }
      ],
      "name": "approve",
      "outputs": [
        {
          "internalType": "bool",
          "name": "",
          "type": "bool"
        }
      ],
      "stateMutability": "nonpayable",
      "type": "function"
    },
    {
      "inputs": [
        {
          "internalType": "address",
          "name": "sender",
          "type": "address"
        },
        {
          "internalType": "address",
          "name": "recipient",
          "type": "address"
        },
        {
          "internalType": "uint256",
          "name": "amount",
          "type": "uint256"
        }
      ],
      "name": "transferFrom",
      "outputs": [
        {
          "internalType": "bool",
          "name": "",
          "type": "bool"
        }
      ],
      "stateMutability": "nonpayable",
      "type": "function"
    },
    {
      "inputs": [
        {
          "internalType": "address",
          "name": "spender",
          "type": "address"
        },
        {
          "internalType": "uint256",
          "name": "addedValue",
          "type": "uint256"
        }
      ],
      "name": "increaseAllowance",
      "outputs": [
        {
          "internalType": "bool",
          "name": "",
          "type": "bool"
        }
      ],
      "stateMutability": "nonpayable",
      "type": "function"
    },
    {
      "inputs": [
        {
          "internalType": "address",
          "name": "spender",
          "type": "address"
        },
        {
          "internalType": "uint256",
          "name": "subtractedValue",
          "type": "uint256"
        }
      ],
      "name": "decreaseAllowance",
      "outputs": [
        {
          "internalType": "bool",
          "name": "",
          "type": "bool"
        }
      ],
      "stateMutability": "nonpayable",
      "type": "function"
    }
  ],
  "bytecode": "0x608060405234801561001057600080fd5b50611acc806100206000396000f3fe608060405234801561001057600080fd5b50600436106101775760003560e01c806370a08231116100d85780639dc29fac1161008c578063dd62ed3e11610066578063dd62ed3e146104ca578063e583983614610505578063f2fde38b1461053857610177565b80639dc29fac1461041f578063a457c2d714610458578063a9059cbb1461049157610177565b80638129fc1c116100bd5780638129fc1c146103de5780638da5cb5b146103e657806395d89b411461041757610177565b806370a08231146103a3578063715018a6146103d657610177565b8063313ce5671161012f5780634fe41129116101145780634fe41129146103355780635471191d1461033d5780635607f4081461037057610177565b8063313ce567146102de57806339509351146102fc57610177565b8063095ea7b311610160578063095ea7b31461023457806318160ddd1461028157806323b872dd1461029b57610177565b8063041be19a1461017c57806306fdde03146101b7575b600080fd5b6101b56004803603604081101561019257600080fd5b5073ffffffffffffffffffffffffffffffffffffffff813516906020013561056b565b005b6101bf6106ba565b6040805160208082528351818301528351919283929083019185019080838360005b838110156101f95781810151838201526020016101e1565b50505050905090810190601f1680156102265780820380516001836020036101000a031916815260200191505b509250505060405180910390f35b61026d6004803603604081101561024a57600080fd5b5073ffffffffffffffffffffffffffffffffffffffff813516906020013561076f565b604080519115158252519081900360200190f35b61028961078c565b60408051918252519081900360200190f35b61026d600480360360608110156102b157600080fd5b5073ffffffffffffffffffffffffffffffffffffffff813581169160208101359091169060400135610792565b6102e6610839565b6040805160ff9092168252519081900360200190f35b61026d6004803603604081101561031257600080fd5b5073ffffffffffffffffffffffffffffffffffffffff8135169060200135610842565b6101b56108a3565b6101b56004803603602081101561035357600080fd5b503573ffffffffffffffffffffffffffffffffffffffff16610984565b6101b56004803603602081101561038657600080fd5b503573ffffffffffffffffffffffffffffffffffffffff16610a61565b610289600480360360208110156103b957600080fd5b503573ffffffffffffffffffffffffffffffffffffffff16610b41565b6101b5610b69565b6101b5610c69565b6103ee610e52565b6040805173ffffffffffffffffffffffffffffffffffffffff9092168252519081900360200190f35b6101bf610e6e565b61026d6004803603604081101561043557600080fd5b5073ffffffffffffffffffffffffffffffffffffffff8135169060200135610eed565b61026d6004803603604081101561046e57600080fd5b5073ffffffffffffffffffffffffffffffffffffffff8135169060200135610f8a565b61026d600480360360408110156104a757600080fd5b5073ffffffffffffffffffffffffffffffffffffffff8135169060200135611005565b610289600480360360408110156104e057600080fd5b5073ffffffffffffffffffffffffffffffffffffffff81358116916020013516611096565b61026d6004803603602081101561051b57600080fd5b503573ffffffffffffffffffffffffffffffffffffffff166110ce565b6101b56004803603602081101561054e57600080fd5b503573ffffffffffffffffffffffffffffffffffffffff166110e3565b61057361126e565b60655473ffffffffffffffffffffffffffffffffffffffff9081169116146105fc57604080517f08c379a000000000000000000000000000000000000000000000000000000000815260206004820181905260248201527f4f776e61626c653a2063616c6c6572206973206e6f7420746865206f776e6572604482015290519081900360640190fd5b8173ffffffffffffffffffffffffffffffffffffffff1663a9059cbb610620610e52565b836040518363ffffffff1660e01b8152600401808373ffffffffffffffffffffffffffffffffffffffff1673ffffffffffffffffffffffffffffffffffffffff16815260200182815260200192505050602060405180830381600087803b15801561068a57600080fd5b505af115801561069e573d6000803e3d6000fd5b505050506040513d60208110156106b457600080fd5b50505050565b609a8054604080516020601f60027fffffffffffffffffffffffffffffffffffffffffffffffffffffffffffffffff6101006001881615020190951694909404938401819004810282018101909252828152606093909290918301828280156107645780601f1061073957610100808354040283529160200191610764565b820191906000526020600020905b81548152906001019060200180831161074757829003601f168201915b505050505090505b90565b600061078361077c61126e565b8484611272565b50600192915050565b60995490565b600061079f8484846113b9565b61082f846107ab61126e565b61082a856040518060600160405280602881526020016119b26028913973ffffffffffffffffffffffffffffffffffffffff8a166000908152609860205260408120906107f661126e565b73ffffffffffffffffffffffffffffffffffffffff168152602081019190915260400160002054919063ffffffff61159716565b611272565b5060019392505050565b609c5460ff1690565b600061078361084f61126e565b8461082a856098600061086061126e565b73ffffffffffffffffffffffffffffffffffffffff908116825260208083019390935260409182016000908120918c16815292529020549063ffffffff61164816565b6108ab61126e565b60655473ffffffffffffffffffffffffffffffffffffffff90811691161461093457604080517f08c379a000000000000000000000000000000000000000000000000000000000815260206004820181905260248201527f4f776e61626c653a2063616c6c6572206973206e6f7420746865206f776e6572604482015290519081900360640190fd5b61093c610e52565b73ffffffffffffffffffffffffffffffffffffffff166108fc479081150290604051600060405180830381858888f19350505050158015610981573d6000803e3d6000fd5b50565b61098c61126e565b60655473ffffffffffffffffffffffffffffffffffffffff908116911614610a1557604080517f08c379a000000000000000000000000000000000000000000000000000000000815260206004820181905260248201527f4f776e61626c653a2063616c6c6572206973206e6f7420746865206f776e6572604482015290519081900360640190fd5b73ffffffffffffffffffffffffffffffffffffffff166000908152609d6020526040902080547fffffffffffffffffffffffffffffffffffffffffffffffffffffffffffffff00169055565b610a6961126e565b60655473ffffffffffffffffffffffffffffffffffffffff908116911614610af257604080517f08c379a000000000000000000000000000000000000000000000000000000000815260206004820181905260248201527f4f776e61626c653a2063616c6c6572206973206e6f7420746865206f776e6572604482015290519081900360640190fd5b73ffffffffffffffffffffffffffffffffffffffff166000908152609d6020526040902080547fffffffffffffffffffffffffffffffffffffffffffffffffffffffffffffff00166001179055565b73ffffffffffffffffffffffffffffffffffffffff1660009081526097602052604090205490565b610b7161126e565b60655473ffffffffffffffffffffffffffffffffffffffff908116911614610bfa57604080517f08c379a000000000000000000000000000000000000000000000000000000000815260206004820181905260248201527f4f776e61626c653a2063616c6c6572206973206e6f7420746865206f776e6572604482015290519081900360640190fd5b60655460405160009173ffffffffffffffffffffffffffffffffffffffff16907f8be0079c531659141344cd1fd0a4f28419497f9722a3daafe3b4186f6b6457e0908390a3606580547fffffffffffffffffffffffff0000000000000000000000000000000000000000169055565b600054610100900460ff1680610c825750610c826116c3565b80610c90575060005460ff16155b610ce5576040517f08c379a000000000000000000000000000000000000000000000000000000000815260040180806020018281038252602e8152602001806119da602e913960400191505060405180910390fd5b600054610100900460ff16158015610d4b57600080547fffffffffffffffffffffffffffffffffffffffffffffffffffffffffffffff007fffffffffffffffffffffffffffffffffffffffffffffffffffffffffffff00ff909116610100171660011790555b690cb49b44ba602d8000006099556040805180820190915260038082527f59545800000000000000000000000000000000000000000000000000000000006020909201918252610d9d91609a91611866565b506040805180820190915260038082527f59545800000000000000000000000000000000000000000000000000000000006020909201918252610de291609b91611866565b50609c80547fffffffffffffffffffffffffffffffffffffffffffffffffffffffffffffff0016601217905560995433600090815260976020526040902055801561098157600080547fffffffffffffffffffffffffffffffffffffffffffffffffffffffffffff00ff16905550565b60655473ffffffffffffffffffffffffffffffffffffffff1690565b609b8054604080516020601f60027fffffffffffffffffffffffffffffffffffffffffffffffffffffffffffffffff6101006001881615020190951694909404938401819004810282018101909252828152606093909290918301828280156107645780601f1061073957610100808354040283529160200191610764565b6000610ef761126e565b60655473ffffffffffffffffffffffffffffffffffffffff908116911614610f8057604080517f08c379a000000000000000000000000000000000000000000000000000000000815260206004820181905260248201527f4f776e61626c653a2063616c6c6572206973206e6f7420746865206f776e6572604482015290519081900360640190fd5b61078383836116c9565b6000610783610f9761126e565b8461082a85604051806060016040528060258152602001611a726025913960986000610fc161126e565b73ffffffffffffffffffffffffffffffffffffffff908116825260208083019390935260409182016000908120918d1681529252902054919063ffffffff61159716565b336000908152609d602052604081205460ff161561108457604080517f08c379a000000000000000000000000000000000000000000000000000000000815260206004820152601960248201527f596f7572207472616e7366657273206172652066726f7a656e00000000000000604482015290519081900360640190fd5b61078361108f61126e565b84846113b9565b73ffffffffffffffffffffffffffffffffffffffff918216600090815260986020908152604080832093909416825291909152205490565b609d6020526000908152604090205460ff1681565b6110eb61126e565b60655473ffffffffffffffffffffffffffffffffffffffff90811691161461117457604080517f08c379a000000000000000000000000000000000000000000000000000000000815260206004820181905260248201527f4f776e61626c653a2063616c6c6572206973206e6f7420746865206f776e6572604482015290519081900360640190fd5b73ffffffffffffffffffffffffffffffffffffffff81166111e0576040517f08c379a00000000000000000000000000000000000000000000000000000000081526004018080602001828103825260268152602001806119446026913960400191505060405180910390fd5b60655460405173ffffffffffffffffffffffffffffffffffffffff8084169216907f8be0079c531659141344cd1fd0a4f28419497f9722a3daafe3b4186f6b6457e090600090a3606580547fffffffffffffffffffffffff00000000000000000000000000000000000000001673ffffffffffffffffffffffffffffffffffffffff92909216919091179055565b3390565b73ffffffffffffffffffffffffffffffffffffffff83166112de576040517f08c379a0000000000000000000000000000000000000000000000000000000008152600401808060200182810382526024815260200180611a4e6024913960400191505060405180910390fd5b73ffffffffffffffffffffffffffffffffffffffff821661134a576040517f08c379a000000000000000000000000000000000000000000000000000000000815260040180806020018281038252602281526020018061196a6022913960400191505060405180910390fd5b73ffffffffffffffffffffffffffffffffffffffff808416600081815260986020908152604080832094871680845294825291829020859055815185815291517f8c5be1e5ebec7d5bd14f71427d1e84f3dd0314c0f7b2291e5b200ac8c7c3b9259281900390910190a3505050565b73ffffffffffffffffffffffffffffffffffffffff8316611425576040517f08c379a0000000000000000000000000000000000000000000000000000000008152600401808060200182810382526025815260200180611a296025913960400191505060405180910390fd5b73ffffffffffffffffffffffffffffffffffffffff8216611491576040517f08c379a00000000000000000000000000000000000000000000000000000000081526004018080602001828103825260238152602001806118ff6023913960400191505060405180910390fd5b61149c83838361181f565b6114ec8160405180606001604052806026815260200161198c6026913973ffffffffffffffffffffffffffffffffffffffff8616600090815260976020526040902054919063ffffffff61159716565b73ffffffffffffffffffffffffffffffffffffffff808516600090815260976020526040808220939093559084168152205461152e908263ffffffff61164816565b73ffffffffffffffffffffffffffffffffffffffff80841660008181526097602090815260409182902094909455805185815290519193928716927fddf252ad1be2c89b69c2b068fc378daa952ba7f163c4a11628f55a4df523b3ef92918290030190a3505050565b60008184841115611640576040517f08c379a00000000000000000000000000000000000000000000000000000000081526004018080602001828103825283818151815260200191508051906020019080838360005b838110156116055781810151838201526020016115ed565b50505050905090810190601f1680156116325780820380516001836020036101000a031916815260200191505b509250505060405180910390fd5b505050900390565b6000828201838110156116bc57604080517f08c379a000000000000000000000000000000000000000000000000000000000815260206004820152601b60248201527f536166654d6174683a206164646974696f6e206f766572666c6f770000000000604482015290519081900360640190fd5b9392505050565b303b1590565b73ffffffffffffffffffffffffffffffffffffffff8216611735576040517f08c379a0000000000000000000000000000000000000000000000000000000008152600401808060200182810382526021815260200180611a086021913960400191505060405180910390fd5b6117418260008361181f565b611791816040518060600160405280602281526020016119226022913973ffffffffffffffffffffffffffffffffffffffff8516600090815260976020526040902054919063ffffffff61159716565b73ffffffffffffffffffffffffffffffffffffffff83166000908152609760205260409020556099546117ca908263ffffffff61182416565b60995560408051828152905160009173ffffffffffffffffffffffffffffffffffffffff8516917fddf252ad1be2c89b69c2b068fc378daa952ba7f163c4a11628f55a4df523b3ef9181900360200190a35050565b505050565b60006116bc83836040518060400160405280601e81526020017f536166654d6174683a207375627472616374696f6e206f766572666c6f770000815250611597565b828054600181600116156101000203166002900490600052602060002090601f016020900481019282601f106118a757805160ff19168380011785556118d4565b828001600101855582156118d4579182015b828111156118d45782518255916020019190600101906118b9565b506118e09291506118e4565b5090565b61076c91905b808211156118e057600081556001016118ea56fe45524332303a207472616e7366657220746f20746865207a65726f206164647265737345524332303a206275726e20616d6f756e7420657863656564732062616c616e63654f776e61626c653a206e6577206f776e657220697320746865207a65726f206164647265737345524332303a20617070726f766520746f20746865207a65726f206164647265737345524332303a207472616e7366657220616d6f756e7420657863656564732062616c616e636545524332303a207472616e7366657220616d6f756e74206578636565647320616c6c6f77616e6365436f6e747261637420696e7374616e63652068617320616c7265616479206265656e20696e697469616c697a656445524332303a206275726e2066726f6d20746865207a65726f206164647265737345524332303a207472616e736665722066726f6d20746865207a65726f206164647265737345524332303a20617070726f76652066726f6d20746865207a65726f206164647265737345524332303a2064656372656173656420616c6c6f77616e63652062656c6f77207a65726fa264697066735822122055b5a9f8271bd0569a281abcd7d008ae7d8a4ff5b32b88be59f5f58345c4701964736f6c63430006000033",
  "source": "pragma solidity =0.6.0;\n\nimport '@openzeppelin/contracts-ethereum-package/contracts/access/Ownable.sol';\nimport '@openzeppelin/contracts-ethereum-package/contracts/token/ERC20/IERC20.sol';\nimport '@openzeppelin/contracts-ethereum-package/contracts/Initializable.sol';\nimport '@openzeppelin/contracts-ethereum-package/contracts/math/SafeMath.sol';\n\ncontract YTXV2 is Initializable, OwnableUpgradeSafe, IERC20 {\n    using SafeMath for uint256;\n\n    mapping (address => uint256) private _balances;\n    mapping (address => mapping (address => uint256)) private _allowances;\n    uint256 private _totalSupply;\n    string private _name;\n    string private _symbol;\n    uint8 private _decimals;\n    mapping (address => bool) public isFrozen;\n    \n    function initialize() public initializer {\n        _totalSupply = 60000 * 1e18; // 60k tokens\n        _name = 'YTX';\n        _symbol = 'YTX';\n        _decimals = 18;\n        _balances[msg.sender] = _totalSupply;\n    }\n\n    function name() public view returns (string memory) {\n        return _name;\n    }\n    \n    function symbol() public view returns (string memory) {\n        return _symbol;\n    }\n    \n    function decimals() public view returns (uint8) {\n        return _decimals;\n    }\n\n    function freezeTokens(address _of) public onlyOwner {\n        isFrozen[_of] = true;\n    }\n    \n    function unFreezeTokens(address _of) public onlyOwner {\n        isFrozen[_of] = false;\n    }\n    \n    function totalSupply() public view override returns (uint256) {\n        return _totalSupply;\n    }\n    \n    function balanceOf(address account) public view override returns (uint256) {\n        return _balances[account];\n    }\n    \n    function transfer(address recipient, uint256 amount) public virtual override returns (bool) {\n        require(!isFrozen[msg.sender], 'Your transfers are frozen');\n        _transfer(_msgSender(), recipient, amount);\n        return true;\n    }\n\n    function burn(address _account, uint256 _amount) public onlyOwner returns (bool) {\n        _burn(_account, _amount);\n        return true;\n    }\n\n    function extractETHIfStuck() public onlyOwner {\n        payable(owner()).transfer(address(this).balance);\n    }\n\n    function extractTokenIfStuck(address _token, uint256 _amount) public onlyOwner {\n        IERC20(_token).transfer(owner(), _amount);\n    }\n    \n    function allowance(address owner, address spender) public view virtual override returns (uint256) {\n        return _allowances[owner][spender];\n    }\n    \n    function approve(address spender, uint256 amount) public virtual override returns (bool) {\n        _approve(_msgSender(), spender, amount);\n        return true;\n    }\n    \n    function transferFrom(address sender, address recipient, uint256 amount) public virtual override returns (bool) {\n        _transfer(sender, recipient, amount);\n        _approve(sender, _msgSender(), _allowances[sender][_msgSender()].sub(amount, \"ERC20: transfer amount exceeds allowance\"));\n        return true;\n    }\n    \n    function increaseAllowance(address spender, uint256 addedValue) public virtual returns (bool) {\n        _approve(_msgSender(), spender, _allowances[_msgSender()][spender].add(addedValue));\n        return true;\n    }\n    \n    function decreaseAllowance(address spender, uint256 subtractedValue) public virtual returns (bool) {\n        _approve(_msgSender(), spender, _allowances[_msgSender()][spender].sub(subtractedValue, \"ERC20: decreased allowance below zero\"));\n        return true;\n    }\n    \n    function _transfer(address sender, address recipient, uint256 amount) internal virtual {\n        require(sender != address(0), \"ERC20: transfer from the zero address\");\n        require(recipient != address(0), \"ERC20: transfer to the zero address\");\n\n        _beforeTokenTransfer(sender, recipient, amount);\n\n        _balances[sender] = _balances[sender].sub(amount, \"ERC20: transfer amount exceeds balance\");\n        _balances[recipient] = _balances[recipient].add(amount);\n        emit Transfer(sender, recipient, amount);\n    }\n\n    function _burn(address account, uint256 amount) internal virtual {\n        require(account != address(0), \"ERC20: burn from the zero address\");\n\n        _beforeTokenTransfer(account, address(0), amount);\n\n        _balances[account] = _balances[account].sub(amount, \"ERC20: burn amount exceeds balance\");\n        _totalSupply = _totalSupply.sub(amount);\n        emit Transfer(account, address(0), amount);\n    }\n\n    function _approve(address owner, address spender, uint256 amount) internal virtual {\n        require(owner != address(0), \"ERC20: approve from the zero address\");\n        require(spender != address(0), \"ERC20: approve to the zero address\");\n\n        _allowances[owner][spender] = amount;\n        emit Approval(owner, spender, amount);\n    }\n\n    function _setupDecimals(uint8 decimals_) internal {\n        _decimals = decimals_;\n    }\n\n    function _beforeTokenTransfer(address from, address to, uint256 amount) internal virtual {}\n}",
  "sourcePath": "/Users/merunas/Desktop/projects/ytx-contracts/contracts/YTXV2.sol",
  "compiler": {
    "name": "solc",
    "version": "0.6.0+commit.26b70077.Emscripten.clang"
  },
  "schemaVersion": "3.3.2",
  "updatedAt": "2020-11-07T17:46:51.176Z",
  "networkType": "ethereum",
  "devdoc": {
    "methods": {
      "owner()": {
        "details": "Returns the address of the current owner."
      },
      "renounceOwnership()": {
        "details": "Leaves the contract without owner. It will not be possible to call `onlyOwner` functions anymore. Can only be called by the current owner.     * NOTE: Renouncing ownership will leave the contract without an owner, thereby removing any functionality that is only available to the owner."
      },
      "transferOwnership(address)": {
        "details": "Transfers ownership of the contract to a new account (`newOwner`). Can only be called by the current owner."
      }
    }
  },
  "userdoc": {
    "methods": {}
  }
}